:020000040800F2
:10000000200D0020450100081D220008F1190008FC
:10001000611E000831100008C53F00080000000004
:100020000000000000000000000000000532000891
:1000300045160008000000000D2E0008A735000836
:100040005F0100085F0100085F0100085F01000810
:100050005F0100085F0100085F0100085F01000800
:100060005F0100085F0100085F0100085F010008F0
:100070005F0100085F0100085F0100085F010008E0
:100080005F0100085F0100085F0100085F010008D0
:100090005F0100085F0100085F0100085F010008C0
:1000A0005F0100085F0100085F0100085F010008B0
:1000B000093600085F0100085F0100085F010008C1
:1000C0005F0100085F0100085F0100085F01000890
:1000D0005F0100084D3C0008713C0008F13C00083D
:1000E0005F0100085F0100085F0100085F01000870
:1000F0005F0100085F0100085F0100085F01000860
:100100005F0100085F0100085F0100085F0100084F
:10011000FD3A00085F0100085F0100085F01000868
:100120005F0100085F0100085F0100085F0100082F
:10013000DFF80CD000F052FD00480047454B0008A6
:10014000200D00200648804706480047FEE7FEE7EE
:10015000FEE7FEE7FEE7FEE7FEE7FEE7FEE7FEE777
:10016000A9350008310100082DE9F0410024061BE3
:10017000254671F1000605DA01240027D0EB0700BF
:1001800067EB0101161E73F1000605DA0027D2EBBA
:100190000702012567EB030300F06CFB86460E4661
:1001A00017469C46AC4204D00025D0EB050E65EB0B
:1001B000010624B10020D2EB000760EB030C70466F
:1001C00031463A466346BDE8F08140EA01039B07A9
:1001D00003D009E008C9121F08C0042AFAD203E0BC
:1001E00011F8013B00F8013B521EF9D27047421C46
:1001F00010F8011B0029FBD1801A704770B5064624
:1002000003F00AFF046805460A220021304600F088
:1002100093FB2C6070BDF0B480EA0102D40F420061
:10022000B2EB410F02D20246084611464A0042D0C4
:10023000C30DDDB2C1F3C752AD1A202D35DAC1F3BB
:10024000160141F4000204B15242C5F1200602FA3F
:1002500006F12A411044B3EBD05F23D0C4B1012D85
:10026000A0EBC35009DCF0BC4FF0004202EAC352DD
:10027000DBB200F5000000F0A0BB400000F1807090
:1002800000EBC350A0F1807040EAD170490009E052
:10029000490841EAC071A0EBC35000F500004008D6
:1002A00000EBC350F0BC00F07FBB6142012202EBC7
:1002B0004101001BF6E7F0BC704781F00041AAE75E
:1002C00080F00040A7E780EA010210B502F0004389
:1002D000400022D04A001FD0010E01EB1261C0F392
:1002E0005600C2F3560240F4000042F40002A0FBA4
:1002F000022000047F39140400D0401C50EA124050
:1003000001D44000491EC2B20C0604EBD010401CC0
:100310004008802A02D003E0002010BD20F0010038
:10032000002900DA0020184310BD30B480EA010231
:1003300002F0004530F0004221F0004013D090B1AF
:10034000C30DD40DC2F31601C0F31600E41A41F434
:10035000000140F400027D34914201D3641C00E0AE
:100360004900002C02DA30BC002070474FF4000036
:100370000023914201D3891A034340084FEA410107
:10038000F7D151B1914202D14FF0004105E002D2C4
:100390004FF0010101E06FF0010103EBC45028446C
:1003A00030BC00F001BB2DE9FE4F804681EA03001E
:1003B000C00F0C46009021F0004123F00045B8EB3F
:1003C0000200A94105D24046214690461C460B46F4
:1003D000024623F00040104347D0270DC7F30A0020
:1003E000C3F30A510290401A019040286BDAC3F31C
:1003F000130040F4801B0098924620B10023D2EBFA
:10040000030A63EB0B0B01985946C0F140025046BA
:1004100000F061FA06460D4650465946019A00F032
:1004200079FA10EB08006141002487EA115284EA4E
:10043000E7731A4340D0009A62B3019A012A4FEA47
:10044000075215DC001B61EB02014FF0004202EA8B
:100450000752CDE90042001C41F5801132462B467F
:1004600000F006FB03B0BDE8F08F40462146F9E7F7
:10047000001B61EB0201001C41F5801300185B4179
:100480002018A2F5001747EB030140EAD570B61912
:100490006D4111E06D084FEA360645EAC0754FEA36
:1004A0000752001B61EB0201001C41F58011490855
:1004B0004FEA30000019514132462B4603B0BDE8E7
:1004C000F04F00F0C6BA0098012240000023D0EBA4
:1004D000020263EBE073009821464FEAE074B8EB48
:1004E000000061EB0401E9E783F000435BE781F082
:1004F000004158E72DE9FE4F81EA030404F000446F
:1005000021F0004100944FF0000B23F0004350EA2B
:1005100001045ED052EA03045BD0C3F30A54C1F372
:100520000A552C44A4F2F3340194A0FB0254C1F305
:10053000130141F48011C3F3130343F4801301FB4F
:10054000024400FB034E840A970A44EA815447EAB6
:100550008357A4FB076802958D0A05FB07854FEAC0
:10056000932C04FB0C542705029D4FEA065847EADA
:100570001637B5EB08056EEB070C870E920E47EAAF
:10058000811742EA8312A7FB0201B6EB0B0164EB71
:1005900000042B0D43EA0C335E1844EB1C50DA4682
:1005A0005146E7FB0201C5F313044FEA0B3343EA5C
:1005B00014534FEA0432019C43EA0603A4F10C04ED
:1005C0000294009CCDE900B400F052FA03B0BDE8FB
:1005D000F08F00200146F9E72DE9F04D81EA030490
:1005E00004F0004B21F0004514464FF0000A23F0C0
:1005F000004150EA050220D054EA01021DD0C5F3A3
:100600000A570246C5F31303C1F31300C1F30A5698
:1006100040F4801543F48013A7EB0608101BD64660
:1006200008F2FD3873EB050002D308F1010801E080
:1006300092185B41B8F1000F03DA00200146BDE8D3
:10064000F08D00204FF48011064684460EE0171B03
:1006500073EB050705D3121B63EB050306434CEA56
:10066000010C49084FEA300092185B4150EA01073B
:10067000EDD152EA030012D082EA040083EA0501B8
:10068000084305D0101BAB4106D20122002306E02F
:1006900000224FF0004302E06FF0010253101AEB0A
:1006A00006004CEB085110EB0A0041EB0B01BDE8D2
:1006B000F04D00F0CEB9C10F80EAE0700844CA07DF
:1006C0009623002100F079B996230022114600F00C
:1006D00074B90EB5C10F80EAE0700844CA07002162
:1006E00040F233438DE80E000A460B4600F0C0F995
:1006F00003B000BD00F0004220F00040C10DC0F387
:10070000160040F400007F2901DA00207047962986
:1007100003DCC1F19601C84001E096398840002A07
:10072000F4D04042704720F00040C10DC0F31600E5
:1007300040F400007F2901DA00207047962903DC8D
:10074000C1F19601C840704796398840704770B52E
:10075000C1F30A5201F000450024C1F3130140F235
:10076000FF3341F480119A4201DA002070BD40F25B
:1007700033439A42A2F2334203DC524200F0BAF809
:1007800000E090402C43F1D0404270BD00F00042A8
:1007900030F000400AD0C10D01F56071C0F31600C1
:1007A00042EA0151C2084007114370470020014648
:1007B0007047000030B5041E71F1000404DB4FF0F7
:1007C0000044404264EB0101141E73F1000405DB98
:1007D0001C464FF00043524263EB04038B4208BFB8
:1007E000824230BD30B5041E71F1000404DB4FF0CD
:1007F0000044404264EB0101141E73F1000405DB68
:100800001C464FF00043524263EB0403994208BF79
:10081000904230BD01F0004330B421F0004150EA75
:10082000010206D00A0DA2F56072C1F31301002A7D
:1008300002DC30BC00207047440F44EAC104C10010
:10084000E01830BC00EBC25000F0AEB8002801DB6D
:10085000C0F10040002901DBC1F100418142704735
:10086000002801DBC0F10040002901DBC1F100419B
:10087000884270472DE9F05F0546002092469B466E
:1008800088460646814640241BE0284641464746A6
:10089000224600F02FF853465A46C01A914110D311
:1008A00011461846224600F016F82D1A67EB01088B
:1008B0004F4622460120002100F00DF817EB0009F9
:1008C0004E41201EA4F10104DFDC484631462A4691
:1008D0004346BDE8F09F202A04DB203A00FA02F1EB
:1008E000002070479140C2F1200320FA03F319431E
:1008F00090407047202A04DB203A21FA02F00021C0
:10090000704721FA02F3D040C2F12002914008431F
:1009100019467047202A06DBCB17203A41FA02F02D
:1009200043EAE07306E041FA02F3D040C2F120024C
:1009300091400843194670472DE9F04791460F460C
:1009400080460446002614F8015B2DB100F058F9EA
:100950000068405DC007F6D12B2D02D02D2D18D098
:10096000641E4A463946204600F04EF927B13968E0
:10097000A14201D1C7F8008071054FF002040BD5E8
:100980004042002803DD03F047FB0460A007BDE8F8
:10099000F08746F48066E4E70028F8DA03F03CFBD1
:1009A00004606FF00040F2E70029A8BF7047401CC8
:1009B000490008BF20F00100704710B4B0FA80FC75
:1009C00000FA0CF050EA010404BF10BC704749B1B2
:1009D000CCF1200421FA04F411FA0CF118BF012122
:1009E00021430843A3EB0C01CB1D4FEA00614FEA02
:1009F000102042BF002010BC704700EBC3501044D1
:100A00000029A4BF10BC7047401C490008BF20F05B
:100A1000010010BC704710B541000CD0C0F3C751A5
:100A2000962908DC7E2909DC06DB410204D000F0AF
:100A3000004040F07E5010BD002010BDC1F1960472
:100A4000C4F1200100FA01F1E040FFF7ADFFA04042
:100A500010BD10B5141E73F1000408DA401C41F1FA
:100A6000000192185B411A4301D120F0010010BD32
:100A70002DE9F04D92469B4611B1B1FA81F202E0A8
:100A8000B0FA80F220329046FFF725FF04460F4669
:100A900040EA0A0041EA0B0153465A46084313D084
:100AA000114653EA010019D0C8F140025046FFF741
:100AB00021FF05460E46504659464246FFF70BFFBA
:100AC000084305D0012004E020463946BDE8F08DFA
:100AD0000020054346EAE0762C4337430A98630535
:100AE000E40AA0EB08000022FD0A44EA47540A3059
:100AF00002D500200146E9E7010510196941DDE949
:100B0000084500196941BDE8F04DA2E770B521F034
:100B1000004303430CD0C1F30A550024D5EB040570
:100B200064EB0403D617AD1AB34102DB0020014683
:100B300070BD201841EB025170BD2DE9F04D00232E
:100B40001A461B1A8A4103DB00200146BDE8F08DDE
:100B5000C1F30A52C1F3130141F480154FF0000BA9
:100B6000D10702D100186D41521E0027044640F201
:100B7000FF11384601EB620A3E46804602460020DD
:100B80004FF48011FFF7B6FEC2197141BB1846EB56
:100B90000100B4EB030C75EB000C04D3E41A65EB15
:100BA000000517460E46241908F101006D418046E4
:100BB0003428E3DDF91946EB0600091BA84103D2EE
:100BC0004FF0FF32134601E0002213461BEB0700F3
:100BD00046EB0A51BDE8F04DFFF73BBF064C074D11
:100BE00006E0E06840F0010394E8070098471034FD
:100BF000AC42F6D3FFF7A0FA785E0008985E0008D2
:100C000000487047745E00082DE9F05F8246007866
:100C1000002715468B460AF10104B946302801D059
:100C20009DB113E014F8010B0127782803D0582850
:100C300001D045B10AE00DB1102D07D100271025D4
:100C400014F8010B02E0082500E00A250026B04652
:100C50000EE005FB080005FB06F1012701EB10463D
:100C60001FFA80F8B6F5803F00D3B94614F8010B9F
:100C7000294600F024F80028EBDABBF1000F05D07C
:100C80000FB1641E00E05446CBF80040B9F1000FEC
:100C900006D003F0C1F902210160C81EBDE8F09F33
:100CA00048EA0640FAE7420005D0C0F3C752524274
:100CB000914201DC0020704700EBC15070473A2898
:100CC00000D2303820F02002412A01D3A2F13700AF
:100CD000884201D34FF0FF3070472DE9F0418EB0CC
:100CE00005460E460027B84600244EE0285D282819
:100CF00001D1002748E0285D2C280DD1B8F1000F64
:100D00000AD1002001A9C85501A8FFF777FA306081
:100D100000274FF0010837E0285D2C280DD1B8F1ED
:100D2000010F0AD1002001A9C85501A8FFF766FAF2
:100D3000706000274FF0020826E0285D2C280DD1B6
:100D4000B8F1020F0AD1002001A9C85501A8FFF788
:100D500055FAB06000274FF0030815E0285D2928F8
:100D60000DD1B8F1030F0AD1002001A9C85501A87F
:100D7000FFF744FAF06000274FF0040804E02A5D12
:100D800038467F1C01A90A54641C2846FFF72FFA35
:100D9000A042ABD80EB0BDE8F081000070B50022D3
:100DA000D021762004F0C2FC77490860B322F421F8
:100DB000762004F011FD1422F521762004F00CFDBC
:100DC00000228821762004F0B1FC0446002289210B
:100DD000762004F0ABFC054644EA05206B49086028
:100DE00000228A21762004F0A1FC044600228B21F7
:100DF000762004F09BFC054644EA052063494860E0
:100E000000228C21762004F091FC044600228D21E2
:100E1000762004F08BFC054644EA05205B49886097
:100E200000228E21762004F081FC044600228F21CE
:100E3000762004F07BFC054644EA05205349C8604F
:100E400000229021762004F071FC044600229121BA
:100E5000762004F06BFC054644EA05204B49086106
:100E600000229221762004F061FC044600229321A6
:100E7000762004F05BFC054644EA052043494861BE
:100E800000229421762004F051FC04460022952192
:100E9000762004F04BFC054644EA05203B49886176
:100EA00000229621762004F041FC0446002297217E
:100EB000762004F03BFC054644EA05203349C8612E
:100EC00000229821762004F031FC0446002299216A
:100ED000762004F02BFC054644EA05202B490862E5
:100EE00000229A21762004F021FC044600229B2156
:100EF000762004F01BFC054644EA0520234948629D
:100F000000229C21762004F011FC044600229D2141
:100F1000762004F00BFC054644EA05201B49886254
:100F200000229E21762004F001FC044600229F212D
:100F3000762004F0FBFB054644EA05201349C8620D
:100F400046F67030086046F243704860104888608A
:100F500048F67D60C8600F4808614FF43D60486105
:100F600040F6273088618C20C8616FF00600086267
:100F700043F68C4048620848886241F27070C8624B
:100F80000148006870BD0000700000201C030020B4
:100F900018FCFFFF43D6FFFFF8C6FFFF2DE9F04125
:100FA00003F0FCFB1A48006803F068FB8046FFF77B
:100FB000EDFB06460022174BFFF70EFB0446FFF73A
:100FC00029FC154908601548006803F087FA804637
:100FD000FFF77FFB06460022114BFFF7FDFA0446A0
:100FE000FFF718FC0F4908600F490E4804F0BAFAE1
:100FF000094800680C49091F0860486806490A68E2
:101000000A4903F0EFFB0849091F8860BDE8F08139
:10101000780000200000594080000020740000206B
:101020000000D94084000020140300204859914456
:1010300000BFFEE72DE9F04F87B004468A4693468D
:101040000020069005908146049059465046FFF7CF
:1010500034F920612069FFF799FB0746314A324B8A
:10106000FFF748FACDE90201A069FFF78FFBCDE950
:101070000001DDE90223FFF796F90546FFF7CAFBF9
:10108000A061216DA069FFF7EBFB02D8206DA06184
:101090000BE0206D80F000452846A169FFF7E0FBDA
:1010A00003D8206D80F00040A06120690690A069FF
:1010B0000590D4E90401FFF700F90390FFF766FB00
:1010C0000546184A184BFFF787FA0746FFF7A2FBB9
:1010D0008146E06938B104F1380204F12001484644
:1010E00000F00EFE8146C4F80C904946A068FFF758
:1010F000EAF8064660680599FFF7E5F807462068B4
:101100000699FFF7E0F880463946FFF784F8054670
:101110003146FFF780F8049020696061049807B0B9
:10112000BDE8F08F7B14AE47E17A743F10B561489B
:10113000006840F2DC51884207DD5F4801F0B2F8F8
:101140005E4A111F081F01F0E5FE5C480838006880
:101150005A4908398968401A584908394968401A73
:101160005749086055480838006854490839896863
:1011700008445249083949680844514948604F4871
:101180000838006840424D4908398968401A4B497F
:101190000839496808444A4988604848083800685E
:1011A0004042464908398968084444490839496831
:1011B000401A4349C8604FF4FA725142404800F067
:1011C000BFFF4FF4FA7251423D48001D00F0B8FFD6
:1011D0004FF4FA7251423A48083000F0B1FF4FF430
:1011E000FA72514236480C3000F0AAFF32480838F3
:1011F00080683449086030480838806848602E4864
:101200000838806888602C4808388068C8604FF4C7
:10121000FA7200212B4800F093FF4FF4FA7200217C
:101220002848001D00F08CFF4FF4FA720021254879
:10123000083000F085FF4FF4FA72002121480C308D
:1012400000F07EFF1E4800681E49096808441E49D8
:1012500008601B4840681B49496808441A494860AF
:1012600017488068174989680844174988601448F6
:10127000C0681449C96808441349C8604FF46172D2
:101280000021114800F05CFF4FF4617200210E480C
:10129000001D00F055FF4FF4617200210A4808302C
:1012A00000F04EFF4FF46172002107480C3000F04F
:1012B00047FF10BDB8000020DC080020D008002047
:1012C000F008002000090020E0080020704700001E
:1012D0002DE9FE4F00F0FEFA00F088FA00F074FBF2
:1012E0006449086BFFF752FA8246634A634BFFF783
:1012F00001F906460F4662490868FFF747FA80463B
:1013000032463B46FFF74FF80446FFF783FA5C4945
:10131000C8605848006B48605649486BFFF736FA7A
:101320008246554A554BFFF7E5F806460F465549A4
:101330000868FFF72BFA804632463B46FFF733F842
:101340000446FFF767FA4F49C8604A48406B486057
:101350004849886BFFF71AFA8246474A474BFFF71E
:10136000C9F806460F4648490868FFF70FFA804655
:1013700032463B46FFF717F80446FFF74BFA42495F
:1013800008603C48806B48603A4A91689068FEF774
:101390009AFF384A019011681068FEF794FF009098
:1013A0000199FEF738FF834603F0A6FB029031480F
:1013B00041680298FEF787FF8246FFF7E7F9064685
:1013C00002F07CFF04464FF0C042304BFFF792F82A
:1013D0008046FFF71FFA2A498860084681682C4832
:1013E000FEF771FF04462648C1682A48FEF76BFFE6
:1013F00005462146FEF70FFF214908601D4A916806
:101400009068FEF760FF1B4A019051685068FEF734
:101410005AFF00900199FEF7FEFE029003F06CFB6C
:101420008346144801685846FEF74DFF8246FFF791
:10143000ADF9064602F042FF04464FF0C042164B9B
:10144000FFF758F88046FFF7E5F90E49886008462F
:1014500081680F48FEF737FF04460A48C1680D4807
:10146000FEF731FF05462146FEF7D5FE0549086027
:10147000BDE8FE8F400100207B14AE47E17A743F47
:10148000A0010020B00100206400002066A64C40AE
:101490008FC2753CF6287C3F66A64CC000200249EE
:1014A0000860012048607047B800002000B585B092
:1014B0000121042001F080FD0121880301F07CFD61
:1014C0004FF40070ADF8100018208DF813000320C1
:1014D0008DF8120004A9164800F0F0F84FF480606F
:1014E000ADF8100004208DF8130004A9104800F096
:1014F000E5F84FF4E13000900020ADF80400ADF8BD
:101500000600ADF80800ADF80C000C20ADF80A009C
:101510006946084802F0C4FC012240F22551054802
:1015200002F099FC0121034802F046FC05B000BD21
:10153000000801400038014070B50446002600252F
:1015400011488068F8B100BF00BF04E0605D30441E
:10155000C6B2681CC5B2E078001DA842F6DC605D2A
:10156000B0420DD16179227941EA0220FFF7A3F858
:101570000549086008680549FEF7D7FE024908607A
:1015800000200149886070BDC803002000007A4433
:1015900000B585B00121102001F00EFD0121C80425
:1015A00001F0FAFC4FF48060ADF8100018208DF8BF
:1015B000130003208DF8120004A9164800F07EF8ED
:1015C0004FF40060ADF8100004208DF8130004A95A
:1015D000104800F073F84FF4E13000900020ADF8AF
:1015E0000400ADF80600ADF80800ADF80C000C20C2
:1015F000ADF80A006946084802F052FC012240F2A8
:101600002551054802F027FC0121034802F0D4FBD4
:1016100005B000BD00100140004C004008480068C3
:1016200008B900BF0BE006480068012801D100BFDF
:1016300005E003480068022801D100BF00BF7047E1
:10164000C400002070470EB50121084601F0A4FC3B
:1016500041F28730ADF804004720ADF800000020CB
:10166000ADF80600ADF802008DF8080069464FF0AD
:10167000804002F0F1F90121880702F05FF80122B1
:101680001146900702F083F80121880702F05CF808
:101690000EBD08B54FF4C06000F0FAFD1C208DF8B7
:1016A000000001208DF8010000208DF802000120CB
:1016B0008DF80300684600F0B3FD08BD2DE9F04148
:1016C000024600250026002000230024002791F870
:1016D00003C00CF00F0591F803C00CF0100CBCF126
:1016E000000F03D091F802C04CEA050591F800C044
:1016F000BCF1000F31D0146800202BE04FF0010C3A
:101700000CFA00F3B1F800C00CEA03069E4220D1A7
:1017100083004FF00F0C0CFA03F7BC4305FA03FCEF
:101720004CEA040491F803C0BCF1280F06D14FF035
:10173000010C0CFA00FCC2F814C00AE091F803C0D6
:10174000BCF1480F05D14FF0010C0CFA00FCC2F8B7
:1017500010C0401C0828D1D31460B1F800C0BCF1FF
:10176000FF0F34DD546800202EE000F1080C4FF02C
:10177000010808FA0CF3B1F800C00CEA03069E4217
:1017800021D183004FF00F0C0CFA03F7BC4305FA8C
:1017900003FC4CEA040491F803C0BCF1280F05D106
:1017A00000F1080C08FA0CF8C2F8148091F803C094
:1017B000BCF1480F07D100F1080C4FF0010808FAFE
:1017C0000CF8C2F81080401C0828CED35460BDE845
:1017D000F0810246002093680B400BB1012000E02D
:1017E00000207047416170470161704700B587B0C4
:1017F0000020062301AA3B210090682003F0BBFFD4
:10180000DDE9012141EA022108B2FEF754FF2B492C
:10181000C860DDE9032141EA022108B2FEF74BFF6F
:1018200026490861DDE9052141EA022108B2FEF7F7
:1018300042FF22494861224AC868224900F060FA02
:101840001E4988611E4A08691E49183100F058FA7D
:101850001A49C8611A4A48691A49303100F050FAE9
:1018600016490862184A8869184900F049FA13496C
:101870004862154AC8691549183100F041FA0F4904
:101880008862114A086A1149303100F039FA0B496F
:10189000C862486A0E49FEF716FD08490860886A62
:1018A0000B49FEF710FD05494860C86A0849FEF774
:1018B0000AFD0249886007B000BD00004001002019
:1018C0003400002080020020C0010020C802002057
:1018D0000001003A70B588B00020062302AA432117
:1018E0000090682003F047FFDDE9021040EA012084
:1018F00004B2DDE9041040EA012005B2DDE906107A
:1019000040EA012006B204F11700FEF7D4FE284990
:10191000C863A5F13500FEF7CEFE25490864A6F19F
:101920002B00FEF7C8FE22494864224AC86B2249B0
:1019300000F0E6F91E4988641E4A086C1E491831F9
:1019400000F0DEF91A49C8641A4A486C1A49303165
:1019500000F0D6F916490865184A886C184900F055
:10196000CFF913494865154AC86C1549183100F07C
:10197000C7F90F498865114A086D1149303100F0E7
:10198000BFF90B49C865486D0E49FEF79CFC084934
:101990000863886D0B49FEF796FC05494863C86DDE
:1019A0000849FEF790FC0249886308B070BD00004A
:1019B000400100201C000020F0010020D801002080
:1019C00038020020F401FA3C0EB50020022301AADF
:1019D00041210090682003F0CEFEDDE9011040EACD
:1019E000012000B2014908600EBD00006C0000201B
:1019F00000BFFEE710B500F0ADFC00F081F800F08C
:101A0000EDF80021481E00F013F901F0D3F900F0C1
:101A100027F800F0AFF9FFF7C1F910BD10B5044683
:101A200001210E48FFF7DEFE03F078FE24B102210B
:101A30000A48FFF7D7FE03E002210848FFF7D4FE6B
:101A400001210648FFF7D0FE03F068FE012103489C
:101A5000FFF7C8FE03F062FE10BD00000008014061
:101A600008B50121042001F0A7FA03208DF8020037
:101A700014208DF803000120ADF8000069460648E7
:101A8000FFF71CFE0220ADF8000069460248FFF790
:101A900015FE00F01BF808BD0008014010B502213A
:101AA0000948FFF7A1FE01210748FFF79DFE03F05B
:101AB00035FE02210448FFF795FE03F02FFE0121B9
:101AC0000148FFF78FFE10BD0008014010B502214C
:101AD0000A48FFF787FE01210848FFF783FE03F05D
:101AE0001DFE01210548FFF77FFE03F017FE0221CE
:101AF0000248FFF779FE03F011FE10BD0008014017
:101B000008B50121102001F057FA48208DF8030094
:101B10000120ADF8000069461348FFF7CFFD022011
:101B2000ADF8000069461048FFF7C8FD0420ADF885
:101B3000000069460C48FFF7C1FD0820ADF8000021
:101B400069460948FFF7BAFD1020ADF80000694664
:101B50000548FFF7B3FD2020ADF8000069460248B4
:101B6000FFF7ACFD08BD000000100140034880886D
:101B7000C0F1640001494880704700001000002057
:101B800010B50121074801F03FFB08B9022010BD44
:101B90000221044801F038FB08B90120F7E70020D2
:101BA000F5E7000000100140054800880449498815
:101BB000884204DA02480088401C014908807047C6
:101BC0001000002010B5FFF7D1FFFFF7D9FF024941
:101BD00008700846007810BD1600002008B50121E5
:101BE000402001F0E9F910208DF8030003208DF862
:101BF00002000420ADF8000069460C48FFF75EFDC6
:101C00000820ADF8000069460848FFF757FD10208E
:101C1000ADF8000069460548FFF750FD2020ADF8FB
:101C2000000069460148FFF749FD08BD0018014062
:101C300070B504460D46012D2ED1012C06D0022C84
:101C400009D0032C0CD0042C14D10EE004212B4815
:101C5000FFF7C8FD1FE008212848FFF7C3FD1AE081
:101C600010212648FFF7BEFD15E020212348FFF78D
:101C7000B9FD10E004212148FFF7B4FD08211F48F9
:101C8000FFF7B0FD10211D48FFF7ACFD20211B48D8
:101C9000FFF7A8FD00BF2FE075BB012C06D0022C7A
:101CA00009D0032C0CD0042C14D10EE004211348CD
:101CB000FFF79AFD1FE008211048FFF795FD1AE095
:101CC00010210E48FFF790FD15E020210B48FFF78B
:101CD0008BFD10E004210948FFF786FD0821074825
:101CE000FFF782FD10210548FFF77EFD2021034804
:101CF000FFF77AFD00BF00BF70BD00000018014073
:101D00002DE9FE4F06460C461546A660E168A86818
:101D1000FEF7D9FA029021696868FEF7D4FA824684
:101D200021686869FEF7CFFA019061682869FEF7BB
:101D3000CAFA0090A168E868FEF7C5FA83460099E0
:101D4000FEF769FA81460199FEF765FA8046514629
:101D5000FEF7B3FA07460299FEF7AFFA60616068D2
:101D60002060A06860602069E0606169216160694D
:101D7000BDE8FE8F10B500227521682003F0D6FC67
:101D8000044600226B21682003F026FD072219215A
:101D9000682003F021FD02221A21682003F01CFDB7
:101DA00010221B21682003F017FD18221C21682037
:101DB00003F012FD06221D21682003F00DFD002214
:101DC0006A21682003F008FD02223721682003F011
:101DD00003FD054A0549064801F010FB054A06497E
:101DE000034801F00BFB10BDD80100200000484261
:101DF00000004843C00100200000F04110B5FFF78B
:101E000067FA114800681149086011480068886045
:101E10001048006848600C484068C8600C4840683A
:101E200048610C48406808610B48006888610A48AE
:101E30004068C86108488068086208480068FEF782
:101E40003AFC0249486210BDA001002018010020A0
:101E500064000020B0010020400100206C00002040
:101E600000BFFEE710B5FFF7ADFE07284AD2DFE856
:101E700000F004051D2B3947480043E02248406824
:101E800018B90120204948600FE0002007E0002138
:101E900000E0491C42F210729142FADB401CB0F59E
:101EA000FA6FF4DB0020184948602BE017480068FF
:101EB000401C1649086008460068022801DD002021
:101EC000086000F047FA1DE011480068401E104904
:101ED000086008460068012801DA0720086000F061
:101EE0001DFA0FE00A480068401C094908600846CE
:101EF0000068072801DD0120086000F00FFA01E00A
:101F000000E000BF00BF10BDB8000020C4000020EA
:101F1000C800002010B5054801F0C8F8FFF76EFFB3
:101F20000348FFF709FBFFF739F810BD78030020DD
:101F30008800002010B5FFF7EDFF05480068B0F5F8
:101F40007A7F01DC00F054FD00F004F810BD0000C1
:101F5000B80000202DE9F04F89B071490868FEF7FC
:101F6000AAFB7049C8606E494868FEF7A4FB6D493A
:101F700008616B498868FEF79EFB6A49486100204A
:101F80000863002167484163816300206649C86097
:101F90000021654801614FF07E5141610020624996
:101FA0000863002160484163816300205E49486501
:101FB00000215D488165C1655A4A91695B4A106894
:101FC000FEF729F9574908600A46D169574A9068CF
:101FD000FEF721F9534948600A46116A534A50688E
:101FE000FEF719F980F000404E4988600A46D16B2F
:101FF0004E4AD068FEF70FF94A4948620A46116C0A
:102000004A4A5069FEF707F9464988620A46516C08
:10201000464A1069FEF7FFF880F000414148C1626E
:102020004148016E0020FEF7F6F83F4988640846F3
:10203000416E0020FEF7EFF83B49C864886EFEF75A
:10204000A5FB04460D46394AD169D069FEF73BF934
:10205000364A049091699069FEF735F9334A029047
:10206000116A106AFEF72FF901900299FEF7D3F872
:1020700003900499FEF7CFF80590FEF787FB8046A2
:1020800003F0BFFB00222A4BCDE90601FEF732FA2E
:10209000064622462B46FEF786F98246FEF7BAFB35
:1020A000214908650A46116D224A106802F098FC21
:1020B0001D48416C20480068FEF7ADF81A49C86217
:1020C000084681690020FEF7A6F81749086008460F
:1020D000C1690020FEF79FF8134948600A46116A5B
:1020E000144A1068FEF797F80F4988600B469A6803
:1020F0000C4B9968186800F09BFB0B4AD16B0F4A98
:102100001068FEF788F8084948620A46116C0B4AC5
:102110005068FEF780F80449886209B0BDE8F08F86
:1021200064030020240400206C0400201801002017
:1021300000002440C803002090000020E403002099
:1021400003688B4201DA016003E00368934200DD1B
:102150000260704770B52C480068002800DA00BFA4
:102160002A48C068002817DB29490868FEF70EFBDB
:1021700021F0004104460022264BFEF733FB0BD929
:1021800023498868FEF702FB21F000410446002243
:10219000204BFEF727FB02D801201B4948601A4854
:1021A0004068012813D14FF47A7100F009FE4FF412
:1021B0007A71022000F004FE4FF47A71032000F0DF
:1021C000FFFD4FF47A71042000F0FAFD1BE0124885
:1021D000006800F57A71012000F0F2FD0E484068B9
:1021E00000F57A71022000F0EBFD0B48806800F5E5
:1021F0007A71032000F0E4FD0748C06800F57A71A9
:10220000042000F0DDFD70BDB80000206403002054
:102210002404002000804640E008002070470000B1
:1022200070B5002100230F22C47804B3154C246834
:1022300004F4E064C4F5E064210AC1F10403CA4077
:10224000447804FA03F184781440214309010E4CC8
:102250000678A155047804F01F050124AC400578E8
:102260006D11AD0005F1E025C5F8004109E00478E5
:1022700004F01F050124AC40044D0678761145F8A2
:10228000264070BD0CED00E000E400E080E100E0DD
:1022900002490143024A1160704700000000FA053C
:1022A0000CED00E010B504464FF07E51144841613A
:1022B000826841691348FEF7BDFE114988630846EC
:1022C000C26A816B1048FEF7B5FE104908600846E7
:1022D0000068FEF70FFA00F5C87020600848426AEF
:1022E000016B0B48FEF7A6FE0A4948610448826A62
:1022F000416B0948FEF79EFE0649C86010BD00000C
:102300006C040020D006002024070020C00000201C
:10231000CC070020240400202008002070B50024F1
:1023200015E004F1B001C8B200F022FA002000F07C
:102330001FFA102000F01CFA002504E0002000F035
:1023400047FA681CC5B2802DF8DB601CC4B2082CAB
:10235000E7DB70BD10B500F0CBF94FF48061244885
:10236000FFF742FA4FF480512148FFF73BFA322041
:1023700000F040F84FF480511D48FFF735FA002077
:1023800001F0CEF8802001F0B9F83F2001F0DDF82F
:10239000002001F0BCF8002000F098FF042001F0BC
:1023A00011F8022000F04EFF012001F0E0F80820B3
:1023B00001F01CF8102001F00FF8CF2000F04BFFC7
:1023C000F12001F0CBF8402001F0D8F8002001F016
:1023D000AEF8002001F0B2F8012001F0A1F80020D1
:1023E00000F015F80021084600F0B0F910BD00001B
:1023F0000018014006E041F6132100BF0A00A1F1D8
:102400000101FBD10200A0F10100F4D1704770B5C9
:102410000646002415E004F1B001C8B200F0A8F9A6
:10242000002000F0A5F9102000F0A2F9002504E03A
:10243000304600F0CDF9681CC5B2802DF8DB601C79
:10244000C4B2082CE7DB70BD2DE9F04105460E460D
:1024500017464FF000080024A7F1200000F0FF0805
:102460007A2E02DD0026681CC5B23146284600F0EF
:102470006DF9002409E008EB4801064A02EB41012E
:10248000085D00F0A5F9601CC4B2062CF3DBBDE8C2
:10249000F08100003C5A00082DE9FF4F87B00D463F
:1024A00017469B4605EB45004006000E05460628EC
:1024B00001DBA81FC5B200213846FEF7C7F907D2D5
:1024C00087F000472D2229460798FFF7BDFF04E05B
:1024D0002B2229460798FFF7B7FFA81DC5B238463B
:1024E000FEF721F981464846FEF7EEF83946059099
:1024F000FDF7E6FE0690484602F060FA00F0FF089D
:10250000A8F101010A2002F047FB0646444608E014
:10251000202229460798FFF797FFA81DC5B2601C27
:10252000C4B21498ABEB0000401EA042F0DC0024C3
:1025300014E0B9FBF6F0303000F0FF0AB9FBF6F01A
:1025400006FB10990A2096FBF0F65246294607989A
:10255000FFF77AFFA81DC5B2601CC4B24445E8DB92
:102560002E2229460798FFF76FFFA81DC5B20A263D
:10257000002433E03046FEF79EF804900699FDF7FC
:10258000A2FE0590FEF7CFF8303000F0FF0A30468B
:10259000FEF791F804903046FEF78DF8009006990A
:1025A000FDF791FE0190FEF7BEF8C0B20290FEF773
:1025B0008BF803900499FDF7B8FE05900699FDF796
:1025C0007FFE069006EB8600460052462946079895
:1025D000FFF73AFFA81DC5B2601CC4B2149884422C
:1025E000C8DB0BB0BDE8F08F2DE9F05F83460E46E7
:1025F0001546994606EB46004006060E002D06DA03
:102600006D422D2231465846FFF71EFF04E020227E
:1026100031465846FFF718FFB01DC6B2284602F0F3
:10262000CDF900F0FF08A8F101010A2002F0B4FA88
:102630000746444608E0202231465846FFF704FF8B
:10264000B01DC6B2601CC4B24C45F4DB002414E0DB
:1026500095FBF7F0303000F0FF0A95FBF7F007FB31
:1026600010550A2097FBF0F7524631465846FFF7BF
:10267000EBFEB01DC6B2601CC4B24445E8DBBDE849
:10268000F09F00002DE9F04780460C4615464FF0BC
:1026900000090026002704EB44004006040E20E059
:1026A000E85D203800F0FF097E2C04DD002408F1ED
:1026B000010000F0FF082146404600F047F80026E0
:1026C00009E009EB4901094A02EB4101885D00F08C
:1026D0007FF8701CC6B2062EF3DBA01DC4B2781CB6
:1026E000C7B2E85D0028DBD1BDE8F0873C5A00089E
:1026F00008B50121402000F05FFC4FF48060ADF888
:10270000000010208DF8030003208DF802006946B8
:102710000D48FEF7D3FF4FF40060ADF800006946A6
:102720000948FEF7CBFF4FF48050ADF80000694632
:102730000548FEF7C3FF4FF40050ADF800006946AE
:102740000148FEF7BBFF08BD0018014070B5054603
:102750000C4605F1B001C8B200F00AF8102141EAB8
:10276000141000F005F804F00F0000F001F870BD3F
:1027700070B504464FF400511448FFF733F80025B4
:102780001BE04FF480611148FFF72CF804F0800043
:1027900028B14FF400610D48FFF726F804E04FF42C
:1027A00000610A48FFF71EF84FF480610748FFF701
:1027B0001BF86006040E681CC5B2082DE1DB4FF45F
:1027C00000510248FFF710F870BD000000180140EA
:1027D00070B504464FF400511448FFF705F8002582
:1027E0001BE04FF480611148FEF7FCFF04F080000D
:1027F00028B14FF400610D48FEF7F6FF04E04FF4F6
:1028000000610A48FEF7EEFF4FF480610748FEF7CB
:10281000EBFF6006040E681CC5B2082DE1DB4FF427
:1028200000510248FEF7E0FF70BD000000180140B3
:102830002DE9F84F05460C461646414841490861C6
:102840004FF07E5048610846C069002876D03E4867
:1028500001682846FDF731FD81463C480168204665
:10286000FDF72BFD00903A4801683A48FDF72BFD33
:102870008246394991F90200FDF71DFF8346374929
:10288000FDF721FD80465146FDF7C5FC0746FDF7E3
:1028900031FF40B230498870314801682D48FDF75A
:1028A00012FD82462C4991F90300FDF704FF83468F
:1028B0002A49FDF708FD80465146FDF7ACFC074666
:1028C000FDF718FF40B22449C87091F90200FDF7E6
:1028D000F2FE80461B4841694046FDF7F4FC07467E
:1028E0003146FDF7F0FC174908601B4991F90300D8
:1028F000FDF7E1FE8046134841694046FDF7E3FCE1
:1029000007463146FDF7DFFC0E4948601248407823
:1029100088610D4805600D4804600F4991F9020077
:10292000FDF7C9FE0A4908600B4991F90300FDF75C
:10293000C2FE0B49086000200249C861BDE8F88F5B
:1029400000002040E4030020A8000020AC0000208C
:10295000B00000209A99993ED40300203333333FCE
:10296000B400002000B585B00121082000F024FB50
:102970000121880400F010FB4FF48060ADF81000D6
:1029800018208DF8130003208DF8120004A91648B2
:10299000FEF794FE4FF40060ADF8100004208DF8AF
:1029A000130004A91048FEF789FE4FF4E1300090AF
:1029B0000020ADF80400ADF80600ADF80800ADF851
:1029C0000C000C20ADF80A006946084801F068FACE
:1029D000012240F22551054801F03DFA012103484A
:1029E00001F0EAF905B000BD000C014000480040CC
:1029F00012481349886100211148C16111490162DF
:102A000000200F49C86300210D4801644164002083
:102A10000D49886100210C48C161016200200A490A
:102A2000C863002108480164416400200649086623
:102A3000002105484166054981667047AE47A13FC0
:102A4000240400205C8FC2BF6C040020B4581AC15B
:102A500010B5FFF707FA00F003F8FEF7DFFD10BD31
:102A600008B5A148006800286CD1A0A20021084642
:102A7000FFF708FE9E4805230F2142680020FFF75C
:102A8000B3FD9CA200210120FFF7FCFD0220009075
:102A90009A4805230F2102680120FFF7FDFC98A248
:102AA00000210220FFF7EEFD02200090934805234D
:102AB0000F2142680220FFF7EFFC93A200210320C0
:102AC000FFF7E0FD022000908C4805230F2182686B
:102AD0000320FFF7E1FC8EA200210420FFF7D2FDC6
:102AE00002200090854805230F21426A0420FFF749
:102AF000D3FC89A200210520FFF7C4FD022000902D
:102B00007E4805230F21826A1846FFF7C5FC84A280
:102B100000210620FFF7B6FD02200090774805232C
:102B20000F21C26A0620FFF7B7FC7FA20021072011
:102B3000FFF7A8FD6E4805230F2102680720FFF765
:102B400053FDD0E068480068012864D178A20021D4
:102B50000846FFF797FD664805230F2142680020CD
:102B6000FFF742FD73A200210120FFF78BFD7348A0
:102B700005230F2102680120FFF736FD70A2002116
:102B80000220FFF77FFD6D4805230F2142680220D8
:102B9000FFF72AFD6CA200210320FFF773FD6748B1
:102BA00005230F2182680320FFF71EFD68A2002184
:102BB0000420FFF767FD684805230F218268042081
:102BC000FFF712FD65A200210520FFF75BFD022043
:102BD0000090644805230F2182681846FFF75CFCCB
:102BE00061A200210620FFF74DFD02200090604801
:102BF00005230F2182680620FFF74EFC4AA2002120
:102C00000720FFF73FFD3A4805230F210268072000
:102C1000FFF7EAFC67E034480068022863D155A258
:102C200000210846FFF72EFD314805230F21426899
:102C30000020FFF7D9FC50A200210120FFF722FD60
:102C40004F4805230F2102680120FFF7CDFC4DA25C
:102C500000210220FFF716FD494805230F21426895
:102C60000220FFF7C1FC49A200210320FFF70AFD63
:102C7000434805230F2182680320FFF7B5FC45A2D6
:102C800000210420FFF7FEFC3D4805230F21C26808
:102C90000420FFF7A9FC41A200210520FFF7F2FC68
:102CA00002200090324805230F21426A1846FFF7A0
:102CB000F3FB3DA200210620FFF7E4FC0220009078
:102CC0002B4805230F21826A0620FFF7E5FB16A299
:102CD00000210720FFF7D6FC054805230F210268D5
:102CE0000720FFF781FC08BDC400002050313A00E6
:102CF000B80000205069746368410000240400207B
:102D00005961774100000000526F6C6C4100000077
:102D100050697463684700005961774700000000FC
:102D2000526F6C6C4700000053797354696D6500F5
:102D300050323A004D6F745F50000000C808002008
:102D40004D6F745F590000004D6F745F52000000BA
:102D50004D6F745F46000000D4080020626D7064FF
:102D600061746100100300206E615F7A0000000052
:102D70006C04002050333A006578705F500000000A
:102D8000640300206578705F590000006578705F0B
:102D9000520000006578705F480000006F70666C3C
:102DA0006F775F78000000006F70666C6F775F79F7
:102DB0000000000010B500F049FC00F077FC10BDE9
:102DC000012806D0022807D0032809D004280FD1F3
:102DD0000AE00D4B198014E00B4B1B1D198010E00D
:102DE000094B083319800CE0074B0C33198008E0BD
:102DF000054B19801B1D19801B1D19801B1D198077
:102E000000BF00BF7047000034040040704700005E
:102E100008B50020034602464FF07E5100902C4832
:102E200000F022FA0020034602460146009029489D
:102E300000F01AFA0020034602464FF07E5100903F
:102E4000254800F011FA0120244B254A254900901D
:102E5000254800F009FA012000231A464FF07F515F
:102E60000090224800F000FA01201C4B1C4A1D492A
:102E700000901F4800F0F8F90020034602464FF08A
:102E80007E5100901B4800F0EFF901201A4B1B4ABD
:102E90001B4900901B4800F0E7F90020034602465A
:102EA00001460090184800F0DFF900200346024672
:102EB0004FF07F510090154800F0D6F900200346EE
:102EC00002464FF07F510090114800F0CDF908BD47
:102ED000D80400202C05002080050020295C0F3D2F
:102EE0000000B0409A99593FD405002028060020E0
:102EF0007C060020D00600206666E63F00004040C9
:102F00000000E0402407002078070020CC070020C4
:102F1000200800202DE9F04104460D4616461848C9
:102F20000268C1681748FEF785F815490863084626
:102F3000826841691448FEF77DF8114988630846A4
:102F4000426A016B1148FEF775F80746FDF7D2FBA0
:102F500020600B48826A416B0D48FEF76BF807460C
:102F6000FDF7C8FB28600648C26A816B0948FEF776
:102F700061F80746FDF7BEFB3060BDE8F081000058
:102F800024040020D804002080050020D40500205F
:102F9000280600207C06002029B1064AD269024397
:102FA000044BDA6104E0034AD2698243014BDA61DF
:102FB000704700000010024029B1064A926902439E
:102FC000044B9A6104E0034A92698243014B9A617F
:102FD000704700000010024030B50021002200249C
:102FE00000232D4D6D6805F00C0121B1042905D099
:102FF000082923D105E0294D056022E0274D056011
:103000001FE0254D6D6805F47012234D6D6805F4C1
:103010008034022505EB92421CB9214D55430560D1
:103020000BE01D4D6D6805F400351DB11C4D554379
:10303000056002E0194D5543056002E0174D05603B
:1030400000BF00BF144D6D6805F0F0010909154D72
:103050006B5C0568DD4045600F4D6D6805F4E0610F
:10306000090A104D6B5C4568DD4085600A4D6D684E
:1030700005F46051C90A0B4D6B5C4568DD40C560C5
:10308000054D6D6805F44041890B074D6B5CC568C3
:10309000B5FBF3F5056130BD0010024000127A0067
:1030A00000093D00CC000020DC00002010B50446E3
:1030B0000748006950B1204600F050F818B10449A3
:1030C0002046FDF70AFE00200149086110BD0000FE
:1030D0006403002000B585B001210420FFF76CFFD8
:1030E00001214804FFF758FF0420ADF81000182014
:1030F0008DF8130003208DF8120004A91548FEF77F
:10310000DDFA0820ADF8100004208DF8130004A9A2
:103110001048FEF7D3FA4FF4E13000900020ADF8EC
:103120000400ADF80600ADF80800ADF80C000C2066
:10313000ADF80A006946084800F0B2FE012240F2EC
:103140002551054800F087FE0121034800F034FEB8
:1031500005B000BD00080140004400402DE9F041E9
:1031600005464FF00008002600272846FDF73FF8E7
:10317000142802D90020BDE8F08100240FE0285D6A
:10318000282802D108F1010808E0285D2C2801D187
:10319000761C03E0285D292800D17F1C641C28468A
:1031A000FDF725F8A042EAD8B8F1010F05D1032EAA
:1031B00003D1012F01D10120DDE70020DBE7000072
:1031C00010B501210E48FEF70DFB02F0A7FA012110
:1031D0000B48FEF709FB02F0A1FA02210848FEF7AE
:1031E000F8FA28B101210648FEF7FCFA002010BDCC
:1031F00001210348FEF7F6FA02F090FA0120F6E703
:10320000000801407047000070B504460D4629468D
:103210002046FEF7DEFA80B929462046FEF7D9FAA5
:1032200058B90748008806494988884203DB0020CE
:103230000349088070BD0220FCE70120FAE7000086
:103240001000002010B504462020FFF791FA204618
:10325000FFF78EFA10BD10B504468120FFF788FAFB
:103260002046FFF785FA10BD2DE9F04104460D46D2
:1032700017461E46DDF8188000212846FDF7E6FABD
:1032800000D2002500213846FDF7E0FA00D20027E1
:1032900000213046FDF7DAFA00D20026256067608B
:1032A000A66007482065C4F81C80E06928B104F1D5
:1032B00038020449044800F0A1F8BDE8F08100009C
:1032C0000000A0420000A0410000484310B50446A1
:1032D00044F04000FFF74CFA10BD10B500F002F8C2
:1032E00010BD00000CB5002001900090334800682C
:1032F00040F480303149086000BF3048006800F475
:10330000003000900198401C0190009818B9019875
:10331000B0F5A06FF1D12948006800F4003010B179
:103320000120009001E0002000900098012843D186
:103330002348006840F010002149086008460068F2
:1033400020F0030008600846006840F002000860B2
:103350001A4840681949486008464068486008466D
:10336000406840F4806048600846406820F47C1063
:1033700048600846406840F4E81048600846006825
:1033800040F08070086000BF0C48006800F00070DA
:103390000028F9D00948406820F003000749486038
:1033A0000846406840F00200486000BF034840689B
:1033B00000F00C000828F9D10CBD000000100240FC
:1033C0000020024010B504468D20FFF7D1F944F0EB
:1033D0001000FFF7CDF910BD10B50446DA20FFF755
:1033E000C7F944F00200FFF7C3F910BD10B5044659
:1033F00044F0C000FFF7BCF910BD00002DE9FF5FED
:1034000007460D46144629463846FCF78EFF0390C2
:1034100038480399FCF789FF804602F019FA0646FE
:1034200031463046FCF74FFF8346334801F008FA37
:103430004FF080410190FCF746FF82463146FCF791
:1034400042FF81464FF07E51FCF7E5FE804659462B
:10345000FCF7E1FE029000212846FDF7F7F901D8BC
:10346000BDE8FF9F31463046FCF72DFF80460299AC
:10347000FCF75BFFE0604FF08040E168FCF723FF62
:103480002061E16861614FF07E5020603146304636
:10349000FCF719FF82464FF07E51FCF70EFF814684
:1034A0004FF08041FCF70FFF80460299FCF73DFF8B
:1034B000606031463046FCF706FF01900E4801F08F
:1034C000BFF94FF080410090FCF7FDFE8346314686
:1034D000FCF7F9FE82464FF07E51FCF7F1FE814683
:1034E0000199FCF798FE80460299FCF71EFFA06048
:1034F00000BFB5E7DB0F4940DB0F493F10B504467D
:10350000D520FFF735F92046FFF732F910BD10B589
:103510000446D320FFF72CF92046FFF729F910BD08
:1035200010B5044644F0AE00FFF722F910BD10B507
:10353000044644F0A400FFF71BF910BD10B5044683
:1035400044F0A600FFF714F910BD10B50446A820FA
:10355000FFF70EF92046FFF70BF910BD10B5044632
:10356000D920FFF705F92046FFF702F910BD10B585
:10357000044644F0A000FFF7FBF810BD10B5044668
:10358000DB20FFF7F5F82046FFF7F2F810BD10B585
:1035900000F0E6F800F01CFCFDF780FFFFF738FCB8
:1035A000FDF794FE10BD704710B51348006840F059
:1035B00001001149086008464068104908400E495A
:1035C0004860084600680E4908400B4908600846F4
:1035D000006820F4802008600846406820F4FE005F
:1035E00048604FF41F008860FFF777FE4FF00060DF
:1035F0000449086010BD0000001002400000FFF800
:10360000FFFFF6FE08ED00E010B50121880700F08D
:10361000ADF8C0B101210846FEF70AFB0A48006870
:10362000401C09490860FEF7BFFAFEF783FCFDF76E
:103630007DFDFEF78FFD00210120FEF7F9FA012143
:10364000880700F07EF810BDB800002008B5012101
:103650000C20FFF7B1FC01210846FFF7ADFC40202C
:10366000ADF8000018208DF8030003208DF802004B
:1036700069460C48FEF722F88020ADF80000694644
:103680000848FEF71BF80120ADF80000694606481F
:10369000FEF714F80220ADF8000069460248FEF774
:1036A0000DF808BD00080140000C014000B587B0CE
:1036B00001210220FFF770FC44F61F60ADF81400F2
:1036C0004820ADF810000020ADF81600ADF812004B
:1036D00004A9194800F0C0F96020ADF800000120ED
:1036E000ADF802000020ADF808006946124800F06D
:1036F00057F80821104800F09FF869460E4800F07E
:10370000A5F808210C4800F0F3F869460A4800F0D3
:10371000FDF80821084800F049F96946064800F01C
:103720004FF90821044800F089F90121024800F00E
:103730000BF807B000BD000000040040CA4302823D
:103740007047CA430282704721B1028842F00102E9
:10375000028004E002884FF6FE731A400280704730
:1037600010B5FDF796FFFDF76EFF10BD30B50246B0
:10377000002000230024158A05EA0103958905EA43
:10378000010413B10CB1012000E0002030BD1AB1DA
:1037900083890B43838102E083898B438381704754
:1037A00070B5002400220023058C4FF6FE763540CC
:1037B0000584028C8388048B4FF68F752C40B51ED0
:1037C0002C400D882C43751E2A400D892A434D88B4
:1037D0002A43144DA8420BD0134DA84208D0134DD4
:1037E000A84205D0124DA84202D0124DA84213D1D2
:1037F0004FF6F7752A404D892A434FF6FB752A404C
:103800008D882A434FF6FF652B404FF6FF552B401E
:103810008D892B43CD892B4383800483CD88858676
:10382000028470BD002C0140003401400040014082
:1038300000440140004801400A460021018B4FF638
:10384000F7731940114301837047000070B50024DD
:1038500000220023058C4FF6EF7635400584028C5C
:103860008388048B48F6FF752C404FF6FF452C40AB
:103870000D884FF6FF7606EA05252C434FF6DF75D7
:103880002A400D8906EA05152A434D8806EA0515E2
:103890002A43154DA84202D0144DA8421DD14FF61F
:1038A0007F752A404D894FF6FF7606EA05152A43B3
:1038B0004FF6BF752A408D8806EA05152A434FF654
:1038C000FF352B404FF2FF752B408D8906EA8505A9
:1038D0002B43CD8906EA85052B4383800483CD885D
:1038E0000587028470BD0000002C014000340140B7
:1038F0000A460021018B4FF2FF7319404FF6FF7308
:1039000003EA0223194301837047000070B50024C5
:1039100000220023058C4FF6FF6635400584028C9B
:103920008388848B4FF68F752C404FF6FC752C40A6
:103930000D882C434FF6FF552A400D894FF6FF7630
:1039400006EA05252A434D8806EA05252A43154D32
:10395000A84202D0144DA8421DD14FF2FF752A4053
:103960004D894FF6FF7606EA05252A434FF6FF35C7
:103970002A408D8806EA05252A434EF6FF752B401E
:103980004DF6FF752B408D8906EA05152B43CD8931
:1039900006EA05152B4383808483CD8885870284BE
:1039A00070BD0000002C0140003401400A46002197
:1039B000818B4FF6F77319401143818370470000E4
:1039C00070B5002200230024058C4EF6FF763540AA
:1039D0000584038C8488828B48F6FF752A404FF655
:1039E000FF452A400D884FF6FF7606EA05252A4353
:1039F0004DF6FF752B400D8906EA05352B434D88A2
:103A000006EA05352B430B4DA84202D00A4DA842C9
:103A100008D14BF6FF752C408D894FF6FF7606EAEC
:103A200085152C4384808283CD88A0F84050038480
:103A300070BD0000002C0140003401400A46002106
:103A4000818B4FF2FF7319404FF6FF7303EA022395
:103A50001943818370470000002202881D4B984261
:103A60000ED01D4B98420BD0B0F1804F08D01B4BAD
:103A7000984205D01A4B984202D01A4B984204D172
:103A80004FF68F731A404B881A43174B984207D052
:103A9000164B984204D04FF6FF431A40CB881A4386
:103AA00002808B8883850B8803850A4B98420BD054
:103AB000094B984208D00E4B984205D00D4B9842C6
:103AC00002D00D4B984201D10B7A038601238382E9
:103AD00070470000002C0140003401400004004009
:103AE00000080040000C004000100040001400409E
:103AF00000400140004401400048014010B540F240
:103B00002551264800F07DF9002845D001210420E8
:103B1000FEF78EF8214800F02FFAC1B22048027853
:103B20000078401C1E4B18701E48815400785A289B
:103B300002D000201946087019480078022806D1E2
:103B4000184840785A2802D00020154908701448B7
:103B5000007803281CDD1348C078401D10490978FF
:103B6000884200D010BD0F48807815280CD10E482F
:103B7000806840B90D480B490A6802604968416095
:103B800001200949886000BF00BF00200449087077
:103B900000210420FEF74CF800BFE3E7004C004092
:103BA0000800002002010020C80300208800002037
:103BB00008B54FF4C060FEF76BFB25208DF80000C0
:103BC00000208DF8010001208DF802008DF803001F
:103BD0006846FEF725FB4FF4C060FEF759FB262030
:103BE0008DF8000000208DF8010002208DF8020001
:103BF00001208DF803006846FEF712FB4FF4C06009
:103C0000FEF746FB34208DF8000000208DF80100FF
:103C100003208DF8020001208DF803006846FEF7AE
:103C2000FFFA4FF4C060FEF733FB27208DF8000049
:103C300000208DF8010004208DF8020001208DF88D
:103C400003006846FEF7ECFA08BD000010B540F22C
:103C50002551064800F0D5F838B1044800F08CF939
:103C6000C4B22146014800F08CF910BD0038014073
:103C700010B540F22551194800F0C3F860B3012196
:103C80000220FDF7D5FF154800F076F91449154AD2
:103C900012688854084613490968405C0A2812D102
:103CA00000200F490F4A126888540E4908600E48D8
:103CB000006968B91E220A490C48FCF786FA0120FF
:103CC0000949086104E007480068401C054908608C
:103CD00000210220FDF7ACFF10BD000000440040B1
:103CE000E40000200400002064030020780300208A
:103CF00038B52CA000680090002540F225512A48D4
:103D000000F07FF800284CD001210320FDF790FF40
:103D1000254800F031F9C4B22448006804280FDABD
:103D2000224909681DF80100A04205D11F4800681A
:103D3000401C1E49086030E000201C4908602CE04F
:103D40001A48006811280CDC18480068001F184940
:103D50000C54281945B215480068401C13490860E6
:103D60001BE01248006812280CD10DB90D2C03D0AD
:103D700000200E49086010E00C480068401C0B4908
:103D800008600AE00A2C05D10A48C06910B9012070
:103D90000849C86100200549086000210320FDF79B
:103DA00047FF38BD234A4223004800400C00002052
:103DB000D4030020E403002021B1828942F40052A0
:103DC000828104E082894DF6FF731A408281704738
:103DD00010B5FFF7EDFEFDF769FBFFF77BF9FDF787
:103DE000D7FBFEF7BFFD10BD02460020B1F5007FF6
:103DF00000D100BF13880B400BB1012000E0002070
:103E0000704770B50246002400230025002040F6CC
:103E10006A16B14200D100BFC1F3421501F01F0381
:103E2000012606FA03F3012D02D19689334006E0FC
:103E3000022D02D1168A334001E0968A33400C12DB
:103E4000012606FA04F41688344013B10CB101209F
:103E500000E0002070BDF0B50346002400260025D8
:103E6000002040F66A17B94200D100BF1846C1F3DE
:103E7000421401F01F06012707FA06F5012C01D1B3
:103E80000C3004E0022C01D1103000E014301AB1E3
:103E900007682F43076002E00768AF430760F0BD83
:103EA0002DE9F04786B005460E460024A24600BF25
:103EB000A1460027B08900B100BF2F462C8A4CF6DE
:103EC000FF700440F08804432C82AC894EF6F31056
:103ED0000440B08831890843718908430443AC81A8
:103EE000AC8A4FF6FF400440B0890443AC8201A87D
:103EF000FFF772F81F48874202D1DDF810A001E0F9
:103F0000DDF80CA0A88900F4004040B10AEBCA001B
:103F100000EB0A1031684900B0FBF1F807E00AEB4A
:103F2000CA0000EB0A1031688900B0FBF1F8642088
:103F3000B8FBF0F004012009642101FB1089A88975
:103F400000F4004040B1322000EBC900B0FBF1F0BA
:103F500000F00700044308E0322000EB0910642160
:103F6000B0FBF1F000F00F0004432C8106B0BDE877
:103F7000F08700000038014001468888C0F308003F
:103F80007047C1F3080282807047000010B50948ED
:103F90004069094908600748C068486007480068E8
:103FA000886006484068C8601022054801F028FD76
:103FB00010BD00002404002010090020E4030020AC
:103FC0000044004000BFFEE7490050EAC12018BF8E
:103FD00004204A0D18BF40F0010040F2FF72B2EB1E
:103FE000515F08BF40F00200012808BF052070475C
:103FF0004100080218BF04200A0E18BF40F001005B
:104000004FF07F4232EA010108BF40F00200012870
:1040100008BF05207047000000487047E0000020FE
:104020002DE9F0414F1E00EBC7010446D1E9000124
:1040300015461E4637F006020DD02A463346FCF7D9
:1040400059FA7F1E04EBC703D3E90023FCF7ABF951
:1040500037F00602F1D1022F25D0042F13D0062FFE
:1040600018BFBDE8F0812A463346FCF743FAD4E98D
:104070000A23FCF798F92A463346FCF73BFAD4E9C1
:104080000823FCF790F92A463346FCF733FAD4E9C3
:104090000623FCF788F92A463346FCF72BFAD4E9C5
:1040A0000423FCF780F92A463346FCF723FAD4E9C7
:1040B0000223FCF778F92A463346FCF71BFAD4E9C9
:1040C0000023BDE8F041FCF76EB900000022134662
:1040D00010460149FCF780BA0000F03F0122FCF7CE
:1040E00015BDFCF760B90022134610461146FCF7D7
:1040F00073BA40F2013200204FF0E041FCF706BDF8
:10410000024A00201107FCF701BD000001FDFFFF7E
:104110000121FCF7C8BD00210846FCF706B96FF085
:104120005E010807FCF7BFBD2DE9F04D0D461446B2
:104130004FF07F41B1EB440F9EBF4FF0FF3129603C
:10414000BDE8F08D4FF0004040EA0421C4F3C750B1
:10415000783810F01F024A4B4FEA601CC2F120066B
:104160007B44C4F3C750A0F178004FEA601003EB22
:10417000800053F82C3008BFD0E901C612D0D0F827
:1041800004C093402CFA06F73B4387680CFA02FC04
:1041900027FA06F8C06807FA02F2F0404CEA080C69
:1041A00042EA0006A3FB0132ACFB01C0A6FB0161A1
:1041B00001EB0C068E4234BF4FF0010C4FF0000CA7
:1041C000C1186144BCF1000F02D0814202D903E062
:1041D000814201D2012000E00020104400F12002C1
:1041E0004FEA92188006CA0C40EA42304F03C5F8E5
:1041F0000080FCF760FA82463846FCF765FA6FF0FB
:104200001201FCF750FD07463046FCF75DFA6FF0EF
:104210002501FCF748FD834639465046FBF7FBFF76
:104220005946FBF7F8FF00F500666FF30B065146A1
:104230003046FCF742F83946FCF73FF85946FCF7A0
:104240003FF81049FCF73FF807460F493046FCF7A6
:104250003AF83946FBF7DFFF07460C493046FCF7D2
:1042600032F83946FBF7D7FF14F0004F08BFBDE81E
:10427000F08DC8F1805180F000402960BDE8F08DDC
:104280006C1C0000DB0FC92F22AAFD290000C92FDA
:1042900002E008C8121F08C1002AFAD1704770470F
:1042A000002001E001C1121F002AFBD1704700006D
:1042B0000149086070470000E00000202DE9F84F38
:1042C00004460D4621F0004000917349814211DC03
:1042D0007249884201DC06D12CB120462946BDE84E
:1042E000F84FFFF7FBBE6E48002DCCBF6D496E49FD
:1042F000BDE8F88F6D49814211DD6D498142D8BF1B
:104300004FF0FF366DDD20462946FFF75DFE04289D
:1043100008BFFFF7F5FE20462946BDE8F88F65493E
:10432000654F25F00045814233DD6449814219DD46
:10433000002632464FF0804320462946FCF733F8EA
:1043400080468A46012220462946FCF7DFFB0022F0
:104350003B46FCF7C9F842465346FCF73DF9044694
:104360000D463EE001260022BA463B46204629463D
:10437000FCF719F880460F4600225346204629468E
:10438000FCF7B2F842463B46FCF726F904460D46D8
:1043900027E04B4981421BDDDFF828A102260022DD
:1043A000534620462946FCF7A5F800223B46FBF77A
:1043B000FAFF80460F460022534620462946FCF766
:1043C00093F842463B46FCF707F904460D4608E0E1
:1043D000032622462B4600203B49FCF7FDF8044605
:1043E0000D4622462B4610461946FCF783F88B46AD
:1043F000824602460B46FCF77DF8074602463348E4
:1044000088460B4606217844FFF70AFE52465B4673
:10441000FCF770F882462E488B463A464346052103
:104420007844FFF7FDFD3A464346FCF763F8024641
:104430000B46002E504659460CDAFBF7B4FF2246D5
:104440002B46FCF757F801B022462B46BDE8F04F4B
:10445000FCF74DB8FBF7A7FF22462B46FCF74AF8BE
:104460001C4A7A4402EBC603D3E90023FCF73CF86C
:1044700022462B46FCF738F8174A7A4402EBC6036B
:10448000D3E90023FCF733F8009A002AB8BF81F083
:104490000041BDE8F88F0000000010440000F07FEC
:1044A000182D4454FB21F93FFB21F9BF0000DC3FEC
:1044B0000000203E0000F33F0000F03F0000E63F18
:1044C000008003400000F83F0000F0BF0619000024
:1044D000C4180000621800002A1800002DE9F14FEE
:1044E00082B06548006BC1174FF4FA33C41A61F10A
:1044F0000005A4FB041005FB040004FB05035E4853
:10450000006AC217A1FB008A03FB00A001FB02099D
:104510005948C069C117A0FB042301FB043100FB0B
:104520000510400440EAD230510411EB080840EB7A
:1045300009095148806918F1000849EBC009A4FB3A
:10454000043005FB040004FB050C4B4840694FEAAE
:10455000E072A3FB001A0CFB00A003FB02024FEA6F
:10456000112040EA02604FEA2222434909694FEADA
:10457000E17C2346A1FB03BE0CFB04E301FB0531F8
:104580004FEA013141EA1B514FEA0B3384461CEBE1
:10459000030442EB0105221C45F500403649C96879
:1045A000CB17A2FB01AC00FB01C002FB03004410CF
:1045B000C517002184EA01006940084301D1BDE824
:1045C000FE8F0298C0F58010C7170646F80740EA2C
:1045D0005600F107B1EB080160EB090040F63543E6
:1045E0004FF0000CA1FB032A00FB03A001FB0C0011
:1045F000CDE9002022462B46DDE90001FBF7B4FDA2
:1046000006460F461C48C06AC217710B41EAC74CE8
:104610007B13A0FB0C1A02FB0CA200FB0322700B05
:1046200040EAC7404FEA673CA1FB003A02FB00A00A
:1046300001FB0C01580E40EAC1144D160E48806A69
:10464000C117A0FB062301FB063100FB0711D00CAC
:1046500040EA41384FEAE149311947EB050011EBD7
:10466000080140EB0900020642EA11200249496AAA
:10467000090146183046A2E71C0300202DE9F14F3E
:104680008CB042494868FCF724F882468B463F4983
:104690000868FCF71EF800223D4BCDE90401FBF74A
:1046A0009BFF04460D460C98FCF713F80022394B8B
:1046B000CDE90401FBF790FF064622462B46FBF7A7
:1046C00013FF52465B46CDE90601FBF713FF804618
:1046D000FCF73DF80A902D498868FBF7FAFFCDE911
:1046E00006012A490868FBF7F4FF064600222A4B18
:1046F000FBF772FF04460D460C98FBF7EAFF0646EF
:1047000000224FF08243FBF767FF804622462B468C
:10471000FBF7EAFECDE902011C490868FBF7D9FF67
:10472000804600221C4BFBF757FF04460D460C98B1
:10473000FBF7CFFF804600224FF08243FBF74CFF90
:10474000064622462B46FBF7CFFECDE90001DDE908
:104750000223FBF7CFFECDE90401DDE90623FBF7D9
:10476000C9FE8246FBF7F3FF0990DDE90910084412
:1047700006490863096B01EB810180310812FBF7E0
:104780009AFF089008980DB0BDE8F08F1C03002038
:10479000000090400000D0400000C04000B587B04D
:1047A0000020062301AAF7210090762000F0E3FF05
:1047B00001980003029940EA0110039940EA1110A0
:1047C0000649086004980003059940EA011006991B
:1047D00040EA11100249086007B000BD74000020D3
:1047E000780000202DE9F74F82B000210298FCF7F5
:1047F00037F81BD2DDE90201FBF797FD0190FBF7CB
:10480000C5FF80460A4A0B4B00F0D0F9064600224D
:10481000094BFBF76CFE04460022084BFBF76AFECF
:104820008246FBF7F7FF05B0BDE8F08F0020FAE7FE
:1048300028610C878A5AC83F0000F03F80A1E540FC
:104840002DE9F843044602464F486946B0EB420F53
:1048500009D94FF0E640B0EB420F94BF00204FF073
:10486000FF30009030E0494B22F00040834271D984
:1048700047492046FBF727FDFCF7CDF88046FBF7BC
:1048800039FF00F00300009042494046FBF71BFD52
:10489000054641494046FBF716FD06463F4940465E
:1048A000FBF711FD07463E494046FBF70CFD21464C
:1048B000FBF706FD3946FBF700FD3146FBF7FDFC33
:1048C0002946FBF7FAFC04462546009C002C45DBF4
:1048D000294614F0010F08461CD0FBF7F4FC0646ED
:1048E0003049FBF7F0FC3049FBF7EAFC3146FBF7B7
:1048F000EAFC2E49FBF78FFC3146FBF7E4FC294626
:10490000FBF7E1FC2946FBF786FC14F0020F1CD0F4
:10491000BDE8F883FBF7D7FC05462549FBF7D3FC38
:104920002449FBF778FC2946FBF7CDFC2249FBF72D
:1049300072FC2946FBF7C7FC4FF07E51FBF76BFC7E
:1049400014F0020F08BFBDE8F88380F00040BDE816
:10495000F883FFE71046FFF7E7FBB4E76800B0F124
:104960007F4F3CBF4FF07E50BDE8F88307D14FF03A
:104970000100FFF79DFCBDE8F843FFF7CCBB2846DC
:10498000BDE8F843FFF7C4BBB61F927E490E494607
:1049900083F9223F1A61342C0020A23300A0FD3994
:1049A0000000C93F336D4C39DA82083CA0AA2ABE08
:1049B000B93AB2BACA9F2A3DDDFFFFBE01460022C6
:1049C00009B901207047002900DA494203E00A20B2
:1049D00091FBF0F1521C0029F9DC1046F2E70000CF
:1049E0002DE9FF5F04460D463A4E4FF07C592946AB
:1049F00039480068FBF70FFC374908602846FBF789
:104A0000C5FE0746354A364BFBF774FDCDE902017A
:104A100034480068FBF7BAFECDE90001DDE9022366
:104A2000FBF7C1FC8246FBF7F5FE2F4908602F48D3
:104A300001682046FBF741FC0390FBF7A7FE074601
:104A4000264A274BFBF7C8FD8246FBF7E3FE2849C1
:104A50000860002126480068FBF7F8FE03D12548CE
:104A600000682349086049464FF07E50FBF725FC5B
:104A70008246204801685046FBF725FC07461C4843
:104A800001684846FBF71FFC80463946FBF7C3FB2D
:104A90001749086031464FF07E50FBF70EFC824606
:104AA000134801685046FBF70EFC07460E480168A4
:104AB0003046FBF708FC80463946FBF7ACFB09495A
:104AC00008600A4804600A4800680A490860BDE8AE
:104AD000FF9F0000A4707D3F9C0000207B14AE4728
:104AE000E17A743F9000002098000020A000002090
:104AF00094000020A40000202DE9F04704464FF068
:104B00007C512046FBF7DFFB814625462E460C48AC
:104B1000A0EB6606354629464846FBF7D4FB82469D
:104B20002946FBF7D0FB80464FF07F51FBF7C8FBCF
:104B300007462946FBF7C7FB05462846BDE8F08730
:104B4000DF59375FFCF756FFFEF721FD21E01148E2
:104B5000007805281CD2DFE800F003070B0F1500D2
:104B600001200C49087013E002200A4908700FE088
:104B70000320084908700BE0FDF76AFF042005498F
:104B8000087005E0FFF702FA00200249087000BF34
:104B900000BFDCE70000002010B50246012000E065
:104BA00050430B00A1F10101FAD110BD2DE9F04DE8
:104BB00016460F4694B01C4621F0004123F00042F7
:104BC000002814BF4FF0010C4FF0000C0CEB470C09
:104BD000FE4B0CEB03054FEA630C65452BD3350008
:104BE00018BF012505EB44051D44F94B9D4222D316
:104BF000F84B52EA060C02D09F4205D148B914B0D6
:104C000000201946BDE8F08D002808BF4FF0000CC9
:104C100001D04FF0010C0CEB470313F5001F0AD82D
:104C2000002E14BF4FF0010C4FF0000C0CEB4403AE
:104C300013F5001F07D914B0324623463946BDE8A4
:104C4000F04DFFF74EBADFF890834FF0000A002FC7
:104C5000B8BF424523DAE14B9A42A8BF4FF0020A9F
:104C60001DDADC4B93421ADCDD4B03EB2253142B91
:104C700008DDC3F1340C26FA0CF303FA0CFCB4453E
:104C80000DD108E05EB9C3F1140C22FA0CF303FA5B
:104C90000CFC944503D103F00103C3F1020A51EA6D
:104CA00000031BD1002C19DA002F18BFBAF1020F34
:104CB00002D0BAF1010F07D00220FFF7F9FA14B0C1
:104CC000BDE8F04DFFF702BA0220FFF7F1FAFFF757
:104CD000FDF914B081F00041BDE8F08D330070D1D2
:104CE000424525D107F1804212F5801201BF00280C
:104CF0000020B84914B008BFBDE8F08DB54888421F
:104D000007DC002CA1BF1846214614B0BDE8F08D89
:104D100007E0002CBFBF184684F0004114B0BDE886
:104D2000F08DB0497944D1E9000114B0BDE8F08DAF
:104D3000DFF8A0C262452AD1002C24DA39B14145FE
:104D400017D1002804BF002002461CD106E040B164
:104D50000220FFF7ADFAFFF7CCF90A46394600F01A
:104D6000D7BA9D4A394614B0002062F31E01BDE84F
:104D7000F08D08DA14B03B46BDE8F04D0246002045
:104D80006146FBF729BC14B03946BDE8F08D4145BA
:104D900017DAB4F1804F0CD0A4F10053B3F1FF53F4
:104DA0000FD13B1E0DDB14B01946BDE8F04D00F0ED
:104DB00028BD3B4614B00246BDE8F04D1946FBF74E
:104DC00099BB050027F000433AD1E1B1414537D105
:104DD000002F06DD002CA1BF0020414614B0BDE825
:104DE000F08D002F01DD002C1FDB002F16DA002CC8
:104DF00014DBBAF1010F4FF0000014BF76497A4975
:104E000014B0BDE8F08DBAF1020F18BF002F0CD01E
:104E1000BAF1010F09D1002F07DA0BE0002FB8BF5C
:104E2000002C0DDABAF1010F04D0002014B00146B5
:104E3000BDE8F08D14B000204FF00041BDE8F08DCA
:104E40004FF0010808EBE77CCDF814C05CEA0A0CCF
:104E50000DD0DFF898C162457EDDDFF894C1654B67
:104E6000624512DD8B420ADB002C18DB23E00120B7
:104E7000FFF71EFA14B0BDE8F04DFFF734B9554AFC
:104E80008A4202DC002C0ADC15E0994202DA002C8E
:104E900011DA04E04F4B994219DD002C0BDD0220A2
:104EA000FFF706FAFFF725F94B4A14B061F31E022B
:104EB0001146BDE8F08D0220FFF7FAF9FFF720F95F
:104EC000444A14B061F31E021146BDE8F08D002281
:104ED0003946FBF709FB07460D466FF00102FBF769
:104EE00015FE4FF05532444BFBF701FB3A462B467B
:104EF000FBF700FB0022414BFBF7F9FA80468B469B
:104F00003A462B4610461946FBF7F4FA42465B46F2
:104F1000FBF7F0FA88460E904FF0C042384B384607
:104F20002946FBF7E7FA83460091364A344B41465F
:104F30000E98FBF7DFFA80460191334A334B38462F
:104F40002946FBF7D7FA4246019BFBF7CDFA0D46FF
:104F500002460B460C9000E011E058460099FBF722
:104F600022FA002788465A463846009BFBF7BCFACF
:104F70002B460C9AFBF7BBFA024600F079B90020E9
:104F8000B1F5801F07DA352228461946FBF7BEFD2A
:104F900005466FF0340000EB2150A0F2FF30019085
:104FA000C1F3130040F07F6141F040510291184974
:104FB0008842D8BF4FF0000B35DD16498142C8BF8B
:104FC0004FF0010B2FDC4FF0000B25E0FFFF1F001F
:104FD000FFFF0F000000F03F0000F07F00004043A3
:104FE00001FCFFFFA01000000000F0FF0000E04106
:104FF0000000F043FFFFEF3F5555D53F0000E03F75
:105000004715F73FFE822B6544DF5DF80BAE543E3B
:105010008E9803007AB60B000198401C019002980C
:10502000A0F580100290FF480299784400EBCB0075
:105030000991D0E9002328460B931292FBF754FA0A
:1050400000910A9028460B9B129A0999FBF7ABF93D
:1050500002460B460020F449FBF7BEFACDE90C01ED
:105060000B46024600990A98FBF744FA0690EF486F
:105070008846002778440299006810904FF000504D
:1050800040EA610000EB8B4000F5002102910B9B90
:10509000129A1098FBF728FA2A46099BFBF727FA81
:1050A0003A464346FBF726FA0891129038464146A5
:1050B000029B109AFBF71EFA009B0A9AFBF717FA5D
:1050C000089B129AFBF710FADDE90C23FBF712FAA2
:1050D0000B91069A1290434610461946FBF70AFABE
:1050E00005460246D2480B460A9106217844FEF74F
:1050F00097FF0A9B2A460891029010461946FBF733
:10510000F9F9089B029AFBF7F5F905460991434620
:1051100038461946069AFBF746F90B9B129AFBF79D
:10512000E9F92A46099BFBF73EF9CDE908013A4621
:10513000434610461946FBF7DDF90A910022BD4BA4
:105140000090FBF730F9DDE90823FBF72CF90D4659
:105150003A46B84B3846FBF7C7F90A9B009AFBF76B
:10516000C3F9DDE90823FBF7C2F9CDE908013A46A6
:105170002B4610464146FBF7BDF900910A90DDE948
:1051800008014346069AFBF7B5F9069088462B4678
:105190003A460B991298FBF7ADF94346069AFBF78E
:1051A00002F980460B4602460D9100990A98FBF7DA
:1051B000FAF800200F460546009B0A9AFBF794F97F
:1051C00042460D9BFBF793F988460E904FF06042E4
:1051D000994B28463946FBF78DF902910090974A82
:1051E000954B41460E98FBF785F980460391944A0A
:1051F000944B28463946FBF77DF94246039BFBF763
:10520000D2F8914A7A4402EBCB03D3E90023FBF7AF
:10521000CAF8054607910198FBF75BFA0C900391D9
:105220002A46079B02990098FBF7BDF8874A7A4403
:1052300002EBCB03D3E9002393460193FBF7B3F8CA
:10524000039B0C9AFBF7AFF8002788463846039B70
:105250000C9AFBF749F95A46019BFBF745F9029B6B
:10526000009AFBF741F92A46079BFBF740F90246F3
:105270000020069005986C4DAAF10103184301D156
:10528000734D069000200B46049030462146FBF7F4
:1052900031F982468B46234630461946049AFBF77D
:1052A00023F93A464346FBF725F952465B46FBF79E
:1052B0007AF806468A463A46434621460498FBF762
:1052C00019F904460F4632465346FBF76CF8614A1B
:1052D0008B46914221DBABEB020353EA000210D173
:1052E00022463B46FBF700F9804603915A4A5B4B46
:1052F00030465146FBF757F84246039BFBF772FADC
:1053000027D20220FEF7D4FFFEF7F3FE0A46294615
:1053100014B062F31E01BDE8F08D514B2BF000423A
:105320009A4216D34F4A0BEB020353EA000208D10C
:1053300022463B46FBF7D8F832465346FBF752FA73
:1053400007D80220FEF7B4FFFEF7DAFE0A46294628
:10535000DEE72BF000404449444A01EB20514FF076
:105360000008824223DA481C4FF4801121FA00F031
:1053700058443F4AC0F30A517A443E4BA1F2FF31F0
:10538000CB4020EA0303C0F3130040F4801CC1F1BA
:10539000140012682CFA00F8BBF1000FB8BFC8F176
:1053A000000820463946FBF79FF804460F46224680
:1053B0003B4630465146FAF7F6FF4FF0000B5A468F
:1053C0002D4B58460391FBF795F800910A902B4A14
:1053D0002B4B58460399FBF78DF804910290224617
:1053E0003B4658460399FBF77FF832465346FBF796
:1053F0007EF8244A244BFBF77DF8049B029AFAF7C7
:10540000D2FF07468A46009B0A9AFAF7CCFF044669
:105410000E46009B0A9AFBF767F83A465346FBF79D
:1054200066F833E0120D00000000F03F500D000060
:10543000800C00000000084009C7EE3FFD033ADC85
:10544000F5015B14E02F3EBE580B00001E0B000060
:105450000000F0BF00009040FE822B654715973C8E
:1054600000CC904000346F3F01FCFFFF0000E03FA4
:105470004C0A0000FFFF0F00432EE63F396CA80CDA
:10548000615C20BEEF39FAFE422EE63F0746224617
:1054900033460F9110461946FBF72CF88346024617
:1054A0002E488A460B4605217844FEF7B9FD5A4638
:1054B0005346FBF71FF822463346FBF718F882469F
:1054C0008B463A46204631460F9BFBF713F83A4687
:1054D0000F9BFAF768FF0F460A9000224FF08043B7
:1054E00050465946FBF700F80391009052465B4640
:1054F00020463146FAF7FEFF039B009AFBF76CF853
:105500003B460A9AFAF7F0FF22463346FAF7ECFFD9
:105510000022134BFAF7EBFF0E46044601EB08514D
:105520000815002810DC424620463146FBF7EEFA0B
:10553000FEF74AFD042808BFFEF7E2FD424620467A
:105540003146FBF7E3FA044606980B4614B02246B0
:105550002946BDE8F04DFAF7CDBF0000F408000081
:105560000000F03F2DE9F05F0446894600210D461A
:105570000E468A463549364A126851F82200002103
:10558000FBF764F912D13149314A2068126841F8B9
:1055900022002068C9F800002D480068401C2C49F2
:1055A0000860052850DB002008604DE028480068AE
:1055B00050B1274A1268521E244B53F8221020681B
:1055C000FAF77BFE834605E0204A11692068FAF766
:1055D00074FE83465846FBF7D9F821F00041074690
:1055E0004FF020421B4BFBF7E5F80ED21748184A44
:1055F0002168126840F8221015480068401C1449C0
:105600000860052801DB002008604FF0000A0DE06B
:105610000E4951F82A00FBF7B9F807462A463346E7
:10562000FAF7C1FE05460E460AF1010ABAF1050F66
:10563000EEDB0022084B28463146FAF7CDFF07463D
:10564000FBF7E8F8C9F80000BDE8F09F5003002020
:105650007C0000209999B93F0000144070B50646BF
:10566000002401211848FCF7BDF800F057F802218A
:105670001548FCF7B9F8002518E000F04FF80121B3
:105680001148FCF7AFF800F049F801210E48FCF78B
:10569000ABF800F043F86006040E02210A48FCF75C
:1056A00098F808B1601CC4B2681CC5B2082DE4DBD0
:1056B00001210548FCF796F800F030F83046FCF779
:1056C000ADF9204670BD00000008014070B50446E9
:1056D000082519E004F0800020B102210E48FCF7F3
:1056E00083F803E002210C48FCF77CF86006040E06
:1056F00000F014F801210848FCF776F800F00EF8E5
:1057000001210548FCF76EF82800A5F10101CDB292
:10571000E0D1FDF755FD70BD00080140002000BF3D
:105720000100A0F1010290B2FAD170472DE9F041D9
:1057300004460D461646FCF7B1F9002141EA440142
:10574000C8B2FFF7C3FF2846FFF7C0FF012E01D103
:10575000FCF7BCF9FCF7A2F9012101EB4401C8B246
:10576000FFF7B4FF0020FFF779FF0746FCF7AEF91B
:105770003846BDE8F0812DE9F04105460E46144655
:105780001F46DDF81880FCF789F9002141EA450140
:10579000C8B2FFF79BFF3046FFF798FFB8F1010F43
:1057A00001D1FCF793F9FCF779F9012101EB4501EF
:1057B000C8B2FFF78BFF04E00120FFF74FFF206026
:1057C000241D781EC0B20700F6D1FFF747FF206006
:1057D000FCF77CF9BDE8F08170B504460D4616462D
:1057E000FCF75CF9002141EA4401C8B2FFF76EFF03
:1057F0002846FFF76BFF3046FFF768FFFCF766F9B6
:1058000070BD2DE9F04106460F46FBF796F90400FE
:105810000D4618BF0120284320F00040C0F17F60F2
:1058200000F1E040C00F0ED0301C18BF01203843FB
:1058300020F00040C0F17F6000F1E040C00F04BFE5
:105840000120FEF735FD20462946BDE8F081000025
:105850002DE9F843044602464C486946B0EB420F36
:1058600009D94FF0E640B0EB420F94BF00204FF053
:10587000FF30009030E0464B22F00040834265D973
:1058800044492046FAF71FFDFBF7C5F88046FAF7B2
:1058900031FF00F0030000903F494046FAF713FD46
:1058A00005463E494046FAF70EFD06463C4940464D
:1058B000FAF709FD07463B494046FAF704FD214641
:1058C000FAF7FEFC3946FAF7F8FC3146FAF7F5FC30
:1058D0002946FAF7F2FC0446009D002D3ADB2146EA
:1058E0000846FAF7F0FC06462F49FAF7ECFC2F4978
:1058F000FAF791FC3146FAF7E6FC2D49FAF78BFCF2
:105900003146FAF7E0FC2B49FAF785FC3146FAF705
:10591000DAFC2949FAF77FFC3146FAF7D4FC27492B
:10592000FAF779FC3146FAF7CEFC2146FAF7CBFCC0
:105930002146FAF770FC15F0010F08BFBDE8F883A7
:105940000146BDE8F8431E48FAF7EFBC1046FEF7E3
:10595000EBFBC0E76000B0F17F4F09D22046FEF7B5
:1059600047FB042808BFFEF7DAFB2046BDE8F883B2
:1059700006D10120FEF79CFCBDE8F843FEF7CBBB47
:105980002046BDE8F843FEF7C3BB0000B61F927E79
:10599000490E494683F9223F1A61342C0020A23374
:1059A00000A0FD390000C93FBBE9223C0C6D063B5D
:1059B0008A76CE3CACB5593D35A1083E29AAAA3E0F
:1059C000000080BF70B506460C46154604E02178FD
:1059D000304600F006F8641C2800A5F10105F6D158
:1059E00070BD70B504460D4600BF80212046FEF70D
:1059F000FBF90028F9D029462046FEF7C2FA70BD0F
:105A00007CB504460D4616460AA0006801900AA01F
:105A100000680090022201A92046FFF7D3FF32461A
:105A200029462046FFF7CEFF022269462046FFF7AF
:105A3000C9FF7CBD03FC0000FC0300000000000067
:105A400000000000002F0000000007000700001405
:105A50007F147F1400242A7F2A1200626408132313
:105A600000364955225000000503000000001C22AA
:105A70004100000041221C000014083E08140008E8
:105A8000083E0808000000A0600000080808080898
:105A9000000060600000002010080402003E514930
:105AA000453E0000427F40000042615149460021CE
:105AB00041454B31001814127F10002745454539E8
:105AC000003C4A4949300001710905030036494943
:105AD000493600064949291E0000363600000000FC
