:020000040800F2
:10000000D00E0020450100083920000849180008DA
:10001000B91C0008490E0008793E000800000000E5
:10002000000000000000000000000000A5300008F3
:100030009D140008000000000D2C00085F3400082B
:100040005F0100085F0100085F0100085F01000810
:100050005F0100085F0100085F0100085F01000800
:100060005F0100085F0100085F0100085F010008F0
:100070005F0100085F0100085F0100085F010008E0
:100080005F0100085F0100085F0100085F010008D0
:100090005F0100085F0100085F0100085F010008C0
:1000A0005F0100085F0100085F0100085F010008B0
:1000B000C13400085F0100085F0100085F0100080B
:1000C0005F0100085F0100085F0100085F01000890
:1000D0005F010008053B0008293B0008A93B000818
:1000E0005F0100085F0100085F0100085F01000870
:1000F0005F0100085F0100085F0100085F01000860
:100100005F0100085F0100085F0100085F0100084F
:10011000B53900085F0100085F0100085F010008B1
:100120005F0100085F0100085F0100085F0100082F
:10013000DFF80CD000F0A8FC004800474D4700084D
:10014000D00E00200648804706480047FEE7FEE73D
:10015000FEE7FEE7FEE7FEE7FEE7FEE7FEE7FEE777
:10016000613400083101000840EA01039B0703D015
:1001700009E008C9121F08C0042AFAD203E011F8E6
:10018000013B00F8013B521EF9D27047421C10F8A7
:10019000011B0029FBD1801A704770B5064603F099
:1001A00095FE046805460A220021304600F019FB3E
:1001B0002C6070BDF0B480EA0102D40F4200B2EBB3
:1001C000410F02D20246084611464A0042D0C30DF2
:1001D000DDB2C1F3C752AD1A202D35DAC1F31601D5
:1001E00041F4000204B15242C5F1200602FA06F1C0
:1001F0002A411044B3EBD05F23D0C4B1012DA0EB52
:10020000C35009DCF0BC4FF0004202EAC352DBB23B
:1002100000F5000000F026BB400000F1807000EB0C
:10022000C350A0F1807040EAD170490009E049084C
:1002300041EAC071A0EBC35000F50000400800EB9C
:10024000C350F0BC00F005BB6142012202EB41014A
:10025000001BF6E7F0BC704781F00041AAE780F090
:100260000040A7E780EA010210B502F00043400019
:1002700022D04A001FD0010E01EB1261C0F35600DC
:10028000C2F3560240F4000042F40002A0FB022038
:1002900000047F39140400D0401C50EA124001D4FD
:1002A0004000491EC2B20C0604EBD010401C4008AE
:1002B000802A02D003E0002010BD20F001000029B8
:1002C00000DA0020184310BD30B480EA010202F0C9
:1002D000004530F0004221F0004013D090B1C30D32
:1002E000D40DC2F31601C0F31600E41A41F4000164
:1002F00040F400027D34914201D3641C00E04900C7
:10030000002C02DA30BC002070474FF400000023BC
:10031000914201D3891A034340084FEA4101F7D1C2
:1003200051B1914202D14FF0004105E002D24FF0AD
:10033000010101E06FF0010103EBC450284430BC1F
:1003400000F087BA2DE9FE4F804681EA0300C00F16
:100350000C46009021F0004123F00045B8EB02006C
:10036000A94105D24046214690461C460B4602460E
:1003700023F00040104347D0270DC7F30A00C3F312
:100380000A510290401A019040286BDAC3F313001F
:1003900040F4801B0098924620B10023D2EB030A60
:1003A00063EB0B0B01985946C0F14002504600F038
:1003B000E7F906460D4650465946019A00F0FFF906
:1003C00010EB08006141002487EA115284EAE773C8
:1003D0001A4340D0009A62B3019A012A4FEA0752A9
:1003E00015DC001B61EB02014FF0004202EA0752EC
:1003F000CDE90042001C41F5801132462B4600F049
:100400008CFA03B0BDE8F08F40462146F9E7001BA7
:1004100061EB0201001C41F5801300185B412018BC
:10042000A2F5001747EB030140EAD570B6196D41FC
:1004300011E06D084FEA360645EAC0754FEA0752EB
:10044000001B61EB0201001C41F5801149084FEAD5
:1004500030000019514132462B4603B0BDE8F04F41
:1004600000F04CBA0098012240000023D0EB0202B9
:1004700063EBE073009821464FEAE074B8EB0000AC
:1004800061EB0401E9E783F000435BE781F00041A1
:1004900058E72DE9FE4F81EA030404F0004421F0FF
:1004A000004100944FF0000B23F0004350EA010498
:1004B0005ED052EA03045BD0C3F30A54C1F30A5579
:1004C0002C44A4F2F3340194A0FB0254C1F31301B1
:1004D00041F48011C3F3130343F4801301FB02447E
:1004E00000FB034E840A970A44EA815447EA835783
:1004F000A4FB076802958D0A05FB07854FEA932C3C
:1005000004FB0C542705029D4FEA065847EA1637AC
:10051000B5EB08056EEB070C870E920E47EA8117C4
:1005200042EA8312A7FB0201B6EB0B0164EB000465
:100530002B0D43EA0C335E1844EB1C50DA4651464F
:10054000E7FB0201C5F313044FEA0B3343EA1453EC
:100550004FEA0432019C43EA0603A4F10C0402941E
:10056000009CCDE900B400F0D8F903B0BDE8F08FED
:1005700000200146F9E72DE9F04D81EA030404F07B
:10058000004B21F0004514464FF0000A23F00041D3
:1005900050EA050220D054EA01021DD0C5F30A57E3
:1005A0000246C5F31303C1F31300C1F30A5640F426
:1005B000801543F48013A7EB0608101BD64608F2FB
:1005C000FD3873EB050002D308F1010801E0921831
:1005D0005B41B8F1000F03DA00200146BDE8F08D61
:1005E00000204FF48011064684460EE0171B73EB83
:1005F000050705D3121B63EB050306434CEA010C08
:1006000049084FEA300092185B4150EA0107EDD1EA
:1006100052EA030012D082EA040083EA050108438B
:1006200005D0101BAB4106D20122002306E00022B8
:100630004FF0004302E06FF0010253101AEB060086
:100640004CEB085110EB0A0041EB0B01BDE8F04DFB
:1006500000F054B9C10F80EAE0700844CA0796233D
:10066000002100F0FFB896230022114600F0FAB8EE
:1006700000F0004220F00040C10DC0F3160040F42D
:1006800000007F2901DA00207047962903DCC1F1C0
:100690009601C84001E096398840002AF4D04042D3
:1006A000704720F00040C10DC0F3160040F4000078
:1006B0007F2901DA00207047962903DCC1F19601F9
:1006C000C840704796398840704700F0004230F0CB
:1006D00000400AD0C10D01F56071C0F3160042EA76
:1006E0000151C2084007114370470020014670477E
:1006F00030B5041E71F1000404DB4FF000444042A9
:1007000064EB0101141E73F1000405DB1C464FF07D
:100710000043524263EB0403994208BF904230BD4C
:1007200001F0004330B421F0004150EA010206D04C
:100730000A0DA2F56072C1F31301002A02DC30BC7D
:1007400000207047440F44EAC104C100E01830BCE7
:1007500000EBC25000F07DB8002801DBC0F1004082
:10076000002901DBC1F1004181427047002801DB13
:10077000C0F10040002901DBC1F10041884270470F
:10078000202A04DB203A00FA02F100207047914051
:10079000C2F1200320FA03F3194390407047202A46
:1007A00004DB203A21FA02F00021704721FA02F31B
:1007B000D040C2F120029140084319467047202AD8
:1007C00006DBCB17203A41FA02F043EAE07306E079
:1007D00041FA02F3D040C2F1200291400843194689
:1007E00070472DE9F04791460F46804604460026A3
:1007F00014F8015B2DB100F059F90068405DC007A5
:10080000F6D12B2D02D02D2D18D0641E4A46394624
:10081000204600F04FF927B13968A14201D1C7F84D
:10082000008071054FF002040BD54042002803DD23
:1008300003F04CFB0460A007BDE8F08746F4806637
:10084000E4E70028F8DA03F041FB04606FF00040B1
:10085000F2E70029A8BF7047401C490008BF20F0FC
:100860000100704710B4B0FA80FC00FA0CF050EAB6
:10087000010404BF10BC704749B1CCF1200421FA37
:1008800004F411FA0CF118BF012121430843A3EB32
:100890000C01CB1D4FEA00614FEA102042BF00203F
:1008A00010BC704700EBC35010440029A4BF10BC1B
:1008B0007047401C490008BF20F0010010BC704781
:1008C00010B541000CD0C0F3C751962908DC7E2931
:1008D00009DC06DB410204D000F0004040F07E500D
:1008E00010BD002010BDC1F19604C4F1200100FA32
:1008F00001F1E040FFF7ADFFA04010BD10B5141EA0
:1009000073F1000408DA401C41F1000192185B41C8
:100910001A4301D120F0010010BD2DE9F04D92469F
:100920009B4611B1B1FA81F202E0B0FA80F22032B6
:100930009046FFF725FF04460F4640EA0A0041EAC9
:100940000B0153465A46084313D0114653EA01009F
:1009500019D0C8F140025046FFF721FF05460E4668
:10096000504659464246FFF70BFF084305D0012089
:1009700004E020463946BDE8F08D0020054346EAF4
:10098000E0762C4337430A986305E40AA0EB08009D
:100990000022FD0A44EA47540A3002D500200146ED
:1009A000E9E7010510196941DDE9084500196941C8
:1009B000BDE8F04DA2E770B521F0004303430CD031
:1009C000C1F30A550024D5EB040564EB0403D617E4
:1009D000AD1AB34102DB0020014670BD201841EB87
:1009E000025170BD2DE9F04D00231A461B1A8A41B1
:1009F00003DB00200146BDE8F08DC1F30A52C1F3CC
:100A0000130141F480154FF0000BD10702D10018FB
:100A10006D41521E0027044640F2FF11384601EB9B
:100A2000620A3E468046024600204FF48011FFF7DE
:100A3000B6FEC2197141BB1846EB0100B4EB030CC2
:100A400075EB000C04D3E41A65EB000517460E465F
:100A5000241908F101006D4180463428E3DDF919BD
:100A600046EB0600091BA84103D24FF0FF321346A4
:100A700001E0002213461BEB070046EB0A51BDE8DC
:100A8000F04DFFF73BBF0000064C074D06E0E06865
:100A900040F0010394E8070098471034AC42F6D3C5
:100AA000FFF74AFB684E0008884E00080048704770
:100AB000644E00082DE9F05F824600780027154655
:100AC0008B460AF10104B946302801D09DB113E0EC
:100AD00014F8010B0127782803D0582801D045B11C
:100AE0000AE00DB1102D07D10027102514F8010BD5
:100AF00002E0082500E00A250026B0460EE005FBCE
:100B0000080005FB06F1012701EB10461FFA80F8EB
:100B1000B6F5803F00D3B94614F8010B294600F022
:100B200024F80028EBDABBF1000F05D00FB1641EEA
:100B300000E05446CBF80040B9F1000F06D003F0B6
:100B4000C5F902210160C81EBDE8F09F48EA0640D1
:100B5000FAE7420005D0C0F3C7525242914201DC8D
:100B60000020704700EBC15070473A2800D230385F
:100B700020F02002412A01D3A2F13700884201D39C
:100B80004FF0FF3070472DE9F0418EB005460E461C
:100B90000027B84600244EE0285D282801D1002710
:100BA00048E0285D2C280DD1B8F1000F0AD10020B3
:100BB00001A9C85501A8FFF7F0FA306000274FF0EF
:100BC000010837E0285D2C280DD1B8F1010F0AD1BA
:100BD000002001A9C85501A8FFF7DFFA70600027BF
:100BE0004FF0020826E0285D2C280DD1B8F1020F45
:100BF0000AD1002001A9C85501A8FFF7CEFAB060BC
:100C000000274FF0030815E0285D29280DD1B8F121
:100C1000030F0AD1002001A9C85501A8FFF7BDFAAA
:100C2000F06000274FF0040804E02A5D38467F1C7E
:100C300001A90A54641C2846FFF7A8FAA042ABD8C1
:100C40000EB0BDE8F081000070B50022D021762002
:100C500003F0EAFC77490860B322F421762003F020
:100C600039FD1422F521762003F034FD002288217D
:100C7000762003F0D9FC044600228921762003F077
:100C8000D3FC054644EA05206B49086000228A210E
:100C9000762003F0C9FC044600228B21762003F065
:100CA000C3FC054644EA05206349486000228C21C4
:100CB000762003F0B9FC044600228D21762003F053
:100CC000B3FC054644EA05205B49886000228E217A
:100CD000762003F0A9FC044600228F21762003F041
:100CE000A3FC054644EA05205349C8600022902130
:100CF000762003F099FC044600229121762003F02F
:100D000093FC054644EA05204B49086100229221E4
:100D1000762003F089FC044600229321762003F01C
:100D200083FC054644EA052043494861002294219A
:100D3000762003F079FC044600229521762003F00A
:100D400073FC054644EA05203B4988610022962150
:100D5000762003F069FC044600229721762003F0F8
:100D600063FC054644EA05203349C8610022982106
:100D7000762003F059FC044600229921762003F0E6
:100D800053FC054644EA05202B49086200229A21BB
:100D9000762003F049FC044600229B21762003F0D4
:100DA00043FC054644EA05202349486200229C2171
:100DB000762003F039FC044600229D21762003F0C2
:100DC00033FC054644EA05201B49886200229E2127
:100DD000762003F029FC044600229F21762003F0B0
:100DE00023FC054644EA05201349C86246F67030E4
:100DF000086046F2437048601048886048F67D609D
:100E0000C8600F4808614FF43D60486140F62730E4
:100E100088618C20C8616FF00600086243F68C4040
:100E200048620848886241F27070C86201480068F0
:100E300070BD0000700000201803002018FCFFFFA8
:100E400043D6FFFFF8C6FFFF00BFFEE72DE9FF5FB7
:100E500004468946924651464846FFF7FDF9A0638D
:100E6000A06BFFF732FC324A324BCDE90001FFF7AD
:100E700010FB07468846206CFFF727FC3A4643469E
:100E8000CDE90201FFF75EFA0546FFF749FC206451
:100E9000E16A206CFFF76AFC02D8E06A20640BE08C
:100EA000E06A80F000452846216CFFF75FFC03D81C
:100EB000E06A80F000402064A06BE060206C20615C
:100EC000D4E90E01FFF7C8F98346FFF7FEFB07469A
:100ED000174A184BFFF74FFB0546FFF721FC6061EF
:100EE000606C38B104F1600204F14801606900F0FF
:100EF00033FE6061E1682068FFF7B4F9A061216901
:100F00006068FFF7AFF9E0616169A068FFF7AAF9CF
:100F10002062D4E90601FFF74DF90546216AFFF783
:100F200049F96062A06BE063606A04B0BDE8F09FBD
:100F30007B14AE47E17A743F10B56148006840F217
:100F4000DC51884207DD5F4801F0BAF85E4A111FA4
:100F5000081F01F02FFF5C48083800685A4908391B
:100F600089680844584908394968401A574908604F
:100F7000554808380068544908398968401A524968
:100F8000083949680844514948604F4808380068A2
:100F900040424D490839896808444B490839496835
:100FA00008444A4988604848083800684042464931
:100FB00008398968401A444908394968401A434940
:100FC000C8604FF4FA725142404803F0F3FB4FF40B
:100FD000FA7251423D48001D03F0ECFB4FF4FA72E7
:100FE00051423A48083003F0E5FB4FF4FA7251429F
:100FF00036480C3003F0DEFB32480838806834494C
:10100000086030480838806848602E480838806892
:1010100088602C4808388068C8604FF4FA72002154
:101020002B4803F0C7FB4FF4FA7200212848001D3B
:1010300003F0C0FB4FF4FA7200212548083003F09A
:10104000B9FB4FF4FA72002121480C3003F0B2FBD7
:101050001E4800681E49096808441E4908601B486C
:1010600040681B49496808441A4948601748806825
:10107000174989680844174988601448C0681449AA
:10108000C96808441349C8604FF4617200211148CF
:1010900003F090FB4FF4617200210E48001D03F035
:1010A00089FB4FF4617200210A48083003F082FB8B
:1010B0004FF46172002107480C3003F07BFB10BD38
:1010C000B8000020880A00207C0A00209C0A00202A
:1010D000AC0A00208C0A00202DE9FE4F00F026FB10
:1010E00000F0B0FA00F09CFB6449086BFFF7EDFAE2
:1010F0008246634A634BFFF7CCF906460F466249C6
:101100000868FFF7E2FA804632463B46FFF71AF9D5
:101110000446FFF705FB5C49C8605848006B48600F
:101120005649486BFFF7D1FA8246554A554BFFF7AF
:10113000B0F906460F4655490868FFF7C6FA8046DB
:1011400032463B46FFF7FEF80446FFF7E9FA4F49FF
:10115000C8604A48406B48604849886BFFF7B5FA59
:101160008246474A474BFFF794F906460F464849DF
:101170000868FFF7AAFA804632463B46FFF7E2F8D6
:101180000446FFF7CDFA424908603C48806B48604E
:101190003A4A91689068FFF765F8384A01901168FB
:1011A0001068FFF75FF800900199FFF703F8834696
:1011B00003F0A6FA0290314841680298FFF752F80E
:1011C0008246FFF782FA064602F0BAFF04464FF065
:1011D000C042304BFFF75DF98046FFF7A1FA2A497C
:1011E0008860084681682C48FFF73CF8044626488A
:1011F000C1682A48FFF736F805462146FEF7DAFFB0
:10120000214908601D4A91689068FFF72BF81B4A36
:10121000019051685068FFF725F800900199FEF79A
:10122000C9FF029003F06CFA8346144801685846DF
:10123000FFF718F88246FFF748FA064602F080FFEB
:1012400004464FF0C042164BFFF723F98046FFF7E4
:1012500067FA0E498860084681680F48FFF702F870
:1012600004460A48C1680D48FEF7FCFF05462146C2
:10127000FEF7A0FF05490860BDE8FE8F3C01002095
:101280007B14AE47E17A743F9C010020AC01002042
:101290006400002066A64C408FC2753CF6287C3F57
:1012A00066A64CC000201449086001204860002058
:1012B0001249C860002111480161416100200F49B5
:1012C000086300210D484163816300200C49C86018
:1012D00000210B4801614161002009490863002198
:1012E000074841638163002005494865002104489F
:1012F0008165C16570470000B8000020200400200F
:101300006804002000B585B00121042001F0A4FD8F
:101310000121880301F0A0FD4FF40070ADF810002A
:1013200018208DF8130003208DF8120004A9164828
:1013300000F0F0F84FF48060ADF8100004208DF854
:10134000130004A9104800F0E5F84FF4E1300090D4
:101350000020ADF80400ADF80600ADF80800ADF8C7
:101360000C000C20ADF80A006946084802F0F4FCB5
:10137000012240F22551054802F0C9FC0121034831
:1013800002F076FC05B000BD0008014000380140C5
:1013900070B504460026002511488068F8B100BFEA
:1013A00000BF04E0605D3044C6B2681CC5B2E0789E
:1013B000001DA842F6DC605DB0420DD16179227952
:1013C00041EA0220FFF746F9054908600868054927
:1013D000FEF77AFF0249086000200149886070BD6D
:1013E000C403002000007A4400B585B0012110201C
:1013F00001F032FD0121C80401F01EFD4FF48060B0
:10140000ADF8100018208DF8130003208DF812009D
:1014100004A9164800F07EF84FF40060ADF8100003
:1014200004208DF8130004A9104800F073F84FF45D
:10143000E13000900020ADF80400ADF80600ADF8F2
:101440000800ADF80C000C20ADF80A006946084809
:1014500002F082FC012240F22551054802F057FCBF
:101460000121034802F004FC05B000BD001001405A
:10147000004C00400848006808B900BF0BE006486F
:101480000068012801D100BF05E003480068022878
:1014900001D100BF00BF7047C000002070470EB5EB
:1014A0000121084601F0C8FC41F28730ADF8040084
:1014B0004720ADF800000020ADF80600ADF80200AE
:1014C0008DF8080069464FF0804002F021FA0121B2
:1014D000880702F08FF801221146900702F0B3F856
:1014E0000121880702F08CF80EBD08B54FF4C060EA
:1014F00000F0DCFD1C208DF8000001208DF80100BB
:1015000000208DF8020001208DF80300684600F0ED
:1015100095FD08BD2DE9F04102460025002600207A
:1015200000230024002791F803C00CF00F0591F868
:1015300003C00CF0100CBCF1000F03D091F802C0F6
:101540004CEA050591F800C0BCF1000F31D01468D9
:1015500000202BE04FF0010C0CFA00F3B1F800C0B2
:101560000CEA03069E4220D183004FF00F0C0CFAC8
:1015700003F7BC4305FA03FC4CEA040491F803C0EA
:10158000BCF1280F06D14FF0010C0CFA00FCC2F898
:1015900014C00AE091F803C0BCF1480F05D14FF028
:1015A000010C0CFA00FCC2F810C0401C0828D1D372
:1015B0001460B1F800C0BCF1FF0F34DD54680020A6
:1015C0002EE000F1080C4FF0010808FA0CF3B1F816
:1015D00000C00CEA03069E4221D183004FF00F0C9D
:1015E0000CFA03F7BC4305FA03FC4CEA040491F837
:1015F00003C0BCF1280F05D100F1080C08FA0CF863
:10160000C2F8148091F803C0BCF1480F07D100F173
:10161000080C4FF0010808FA0CF8C2F81080401CC2
:101620000828CED35460BDE8F081024600209368BC
:101630000B400BB1012000E0002070474161704772
:101640000161704700B587B00020062301AA3B2145
:101650000090682003F00DF8DDE9012141EA022144
:1016600008B2FEF7F7FF2B49C860DDE9032141EA24
:10167000022108B2FEF7EEFF26490861DDE90521E7
:1016800041EA022108B2FEF7E5FF22494861224AF9
:10169000C868224900F060FA1E4988611E4A08693C
:1016A0001E49183100F058FA1A49C8611A4A4869A7
:1016B0001A49303100F050FA16490862184A886910
:1016C000184900F049FA13494862154AC869154992
:1016D000183100F041FA0F498862114A086A11492D
:1016E000303100F039FA0B49C862486A0E49FEF7FA
:1016F000B9FD08490860886A0B49FEF7B3FD054942
:101700004860C86A0849FEF7ADFD0249886007B025
:1017100000BD00003C010020280000207C020020C9
:10172000BC010020C40200200001003A70B588B05E
:101730000020062302AA43210090682002F099FFAE
:10174000DDE9021040EA012004B2DDE9041040EABC
:10175000012005B2DDE9061040EA012006B204F1DD
:101760001700FEF777FF2849C863A5F13500FEF79B
:1017700071FF25490864A6F12B00FEF76BFF224993
:101780004864224AC86B224900F0E6F91E49886481
:101790001E4A086C1E49183100F0DEF91A49C86467
:1017A0001A4A486C1A49303100F0D6F916490865D2
:1017B000184A886C184900F0CFF913494865154A52
:1017C000C86C1549183100F0C7F90F498865114AEE
:1017D000086D1149303100F0BFF90B49C865486DFB
:1017E0000E49FEF73FFD08490863886D0B49FEF777
:1017F00039FD05494863C86D0849FEF733FD0249C4
:10180000886308B070BD00003C010020100000207B
:10181000EC010020D401002034020020F401FA3C45
:101820000EB50020022301AA41210090682002F099
:1018300020FFDDE9011040EA012000B20149086003
:101840000EBD00006C00002000BFFEE710B500F0E8
:101850008BFC00F081F800F0EDF80021481E00F04C
:1018600013F901F0B1F900F027F800F0AFF9FFF734
:10187000EBF910BD10B5044601210E48FFF7DEFE5E
:1018800002F0CAFE24B102210A48FFF7D7FE03E0A6
:1018900002210848FFF7D4FE01210648FFF7D0FED9
:1018A00002F0BAFE01210348FFF7C8FE02F0B4FEC1
:1018B00010BD00000008014008B50121042001F01E
:1018C000CBFA03208DF8020014208DF803000120CC
:1018D000ADF8000069460648FFF71CFE0220ADF88F
:1018E000000069460248FFF715FE00F01BF808BD2E
:1018F0000008014010B502210948FFF7A1FE0121AF
:101900000748FFF79DFE02F087FE02210448FFF71B
:1019100095FE02F081FE01210148FFF78FFE10BD08
:101920000008014010B502210A48FFF787FE012197
:101930000848FFF783FE02F06FFE01210548FFF71C
:101940007FFE02F069FE02210248FFF779FE02F0F5
:1019500063FE10BD0008014008B50121102001F010
:101960007BFA48208DF803000120ADF8000069469D
:101970001348FFF7CFFD0220ADF80000694610487C
:10198000FFF7C8FD0420ADF8000069460C48FFF7DA
:10199000C1FD0820ADF8000069460948FFF7BAFD0F
:1019A0001020ADF8000069460548FFF7B3FD202080
:1019B000ADF8000069460248FFF7ACFD08BD000025
:1019C0000010014003488088C0F16400014948804C
:1019D000704700005800002010B50121074801F0B1
:1019E00063FB08B9022010BD0221044801F05CFB32
:1019F00008B90120F7E70020F5E7000000100140DA
:101A00000548008804494988884204DA0248008869
:101A1000401C0149088070475800002010B5FFF7AE
:101A2000D1FFFFF7D9FF024908700846007810BDC2
:101A30005E00002008B50121402001F00DFA1020C1
:101A40008DF8030003208DF802000420ADF800009B
:101A500069460C48FFF75EFD0820ADF800006946B6
:101A60000848FFF757FD1020ADF80000694605480B
:101A7000FFF750FD2020ADF8000069460148FFF750
:101A800049FD08BD0018014070B504460D46012D02
:101A90002ED1012C06D0022C09D0032C0CD0042C02
:101AA00014D10EE004212B48FFF7C8FD1FE00821E8
:101AB0002848FFF7C3FD1AE010212648FFF7BEFDB6
:101AC00015E020212348FFF7B9FD10E0042121484B
:101AD000FFF7B4FD08211F48FFF7B0FD10211D4896
:101AE000FFF7ACFD20211B48FFF7A8FD00BF2FE04A
:101AF00075BB012C06D0022C09D0032C0CD0042C71
:101B000014D10EE004211348FFF79AFD1FE00821CD
:101B10001048FFF795FD1AE010210E48FFF790FDE1
:101B200015E020210B48FFF78BFD10E00421094848
:101B3000FFF786FD08210748FFF782FD10210548C1
:101B4000FFF77EFD20210348FFF77AFD00BF00BFAD
:101B500070BD0000001801402DE9FE4F06460C46FE
:101B60001546A660E168A868FEF77CFB0290216933
:101B70006868FEF777FB824621686869FEF772FBAA
:101B8000019061682869FEF76DFB0090A168E86824
:101B9000FEF768FB83460099FEF70CFB814601992E
:101BA000FEF708FB80465146FEF756FB07460299B2
:101BB000FEF752FB606160682060A0686060206989
:101BC000E060616921616069BDE8FE8F10B50022A7
:101BD0007521682002F028FD044600226B21682050
:101BE00002F078FD07221921682002F073FD02221D
:101BF0001A21682002F06EFD10221B21682002F0DD
:101C000069FD18221C21682002F064FD06221D21B6
:101C1000682002F05FFD00226A21682002F05AFD70
:101C200002223721682002F055FD054A0549064881
:101C300001F042FB054A0649034801F03DFB10BD97
:101C4000D40100200000484200004843BC010020AD
:101C50000000F04110B5FFF73FFA11480068FEF7A9
:101C6000F9FC1049486210484068C8600F48406855
:101C700048610F48406808610E48006888610D4857
:101C80004068C8610B4880680862074800680860BF
:101C900006480068886006480068486010BD00007B
:101CA0006C000020140100209C0100206400002032
:101CB000AC0100203C01002000BFFEE710B5FFF79B
:101CC000ADFE07284AD2DFE800F004051D2B394796
:101CD000480043E02248406818B901202049486084
:101CE0000FE0002007E0002100E0491C42F21072E2
:101CF0009142FADB401CB0F5FA6FF4DB0020184982
:101D000048602BE017480068401C164908600846E8
:101D10000068022801DD0020086000F025FA1DE0BF
:101D200011480068401E10490860084600680128F4
:101D300001DA0720086000F0FBF90FE00A480068AC
:101D4000401C0949086008460068072801DD012099
:101D5000086000F0EDF901E000E000BF00BF10BD39
:101D6000B8000020C0000020C400002010B50548C5
:101D70000068B0F57A7F01DC00F044FD00F004F863
:101D800010BD0000B80000202DE9F04F89B06E486A
:101D900001F0DCF86D490868FEF75CFC6C49C8602E
:101DA0006A494868FEF756FC6949086167498868CE
:101DB000FEF750FC6649486100206649C860002172
:101DC000644801616149C868FEF744FC61494861A3
:101DD0000020086300215F4841638163FFF73AFFF9
:101DE0005B4A91695C4A1068FEF7E4F9584908605B
:101DF0000A46D169584A9068FEF7DCF954494860B0
:101E00000A46116A544A5068FEF7D4F9504988606E
:101E10000A46D16B504AD068FEF7CCF94C4948626B
:101E20000A46116C4C4A5069FEF7C4F94849886269
:101E30000A46516C484A1069FEF7BCF94449C86229
:101E40004648FFF7A5FA4349886EFEF73EFC044674
:101E50000D46414AD169D069FEF704FA3E4A049022
:101E600091699069FEF7FEF93B4A0290116A106A87
:101E7000FEF7F8F901900299FEF79CF90390049996
:101E8000FEF798F90590FEF720FC804602F0FCFC76
:101E90000022334BCDE90601FEF7FBFA0646224647
:101EA0002B46FEF74FFA8246FEF73AFC29490865B1
:101EB0000A46116A2B4A1068FEF77CF925498860AA
:101EC0000A46116D906802F01BFB2248416C2648BF
:101ED0000068FEF76FF91F49C8620B469A681C4BF1
:101EE0009968186800F0AEFB1A4AD16B1F4A106857
:101EF000FEF760F9174948620A46116C1B4A5068A0
:101F0000FEF758F9134988620846016E0020FEF773
:101F100051F9104988640846416E0020FEF74AF9DD
:101F20000C49C864084681690020FEF743F9094955
:101F300008600846C1690020FEF73CF90549486081
:101F400009B0BDE8F08F000074030020600300209A
:101F500020040020680400201401002088000020D4
:101F600000002440C403002090000020E003002073
:101F700070B52C480068002800DA00BF2A48C06805
:101F8000002817DB29490868FEF79FFB21F0004174
:101F900004460022264BFEF7ABFB0BD92349886889
:101FA000FEF793FB21F0004104460022204BFEF790
:101FB0009FFB02D801201B4948601A48406801284D
:101FC00013D14FF47A7100F005FE4FF47A710220BC
:101FD00000F000FE4FF47A71032000F0FBFD4FF497
:101FE0007A71042000F0F6FD1BE01248006800F54D
:101FF0007A71012000F0EEFD0E48406800F57A711C
:10200000022000F0E7FD0B48806800F57A7103209C
:1020100000F0E0FD0748C06800F57A71042000F088
:10202000D9FD70BDB800002060030020200400200E
:10203000008046408C0A00207047000070B50021E7
:1020400000230F22C47804B3154C246804F4E06420
:10205000C4F5E064210AC1F10403CA40447804FADB
:1020600003F184781440214309010E4C0678A155F0
:10207000047804F01F050124AC4005786D11AD0013
:1020800005F1E025C5F8004109E0047804F01F05DA
:102090000124AC40044D0678761145F8264070BD09
:1020A0000CED00E000E400E080E100E002490143C3
:1020B000024A1160704700000000FA050CED00E0D4
:1020C00070B504464FF07E51134841618268416902
:1020D0001248FEF7BBFE104988630846C26A816B4E
:1020E0000F48FEF7B3FE0546FEF7C2FA00F5C870CA
:1020F00020600948426A016B0A48FEF7A7FE80F09B
:102100000041094841610448826A416B0748FEF773
:102110009DFE0549C86070BD68040020A40700202A
:102120001C0800200C090020200400208409002045
:1021300070B5002415E004F1B001C8B200F022FA35
:10214000002000F01FFA102000F01CFA002504E027
:10215000002000F047FA681CC5B2802DF8DB601C37
:10216000C4B2082CE7DB70BD10B500F0CBF94FF41A
:1021700080612448FFF764FA4FF480512148FFF74B
:102180005DFA322000F040F84FF480511D48FFF70F
:1021900057FA002001F022F9802001F00DF93F20CC
:1021A00001F031F9002001F010F9002000F0ECFFFF
:1021B000042001F065F8022000F094FF012001F0F6
:1021C00034F9082001F070F8102001F063F8CF20F6
:1021D00000F091FFF12001F01FF9402001F02CF9EF
:1021E000002001F002F9002001F006F9012001F0C1
:1021F000F5F8002000F015F80021084600F0B0F9CD
:1022000010BD00000018014006E041F6132100BF98
:102210000A00A1F10101FBD10200A0F10100F4D1FB
:10222000704770B50646002415E004F1B001C8B24D
:1022300000F0A8F9002000F0A5F9102000F0A2F9A4
:10224000002504E0304600F0CDF9681CC5B2802DB1
:10225000F8DB601CC4B2082CE7DB70BD2DE9F0414F
:1022600005460E4617464FF000080024A7F120004F
:1022700000F0FF087A2E02DD0026681CC5B2314648
:10228000284600F06DF9002409E008EB4801064AF1
:1022900002EB4101085D00F0A5F9601CC4B2062CF8
:1022A000F3DBBDE8F0810000C04A00082DE9FF4FD4
:1022B00087B00D4617469B4605EB45004006000ECD
:1022C0000546062801DBA81FC5B200213846FEF7E7
:1022D00043FA07D287F000472D2229460798FFF7D7
:1022E000BDFF04E02B2229460798FFF7B7FFA81D82
:1022F000C5B23846FEF7D5F981464846FEF7B3F930
:1023000039460590FDF7ABFF0690484602F0E6F827
:1023100000F0FF08A8F101010A2002F041FA064688
:10232000444608E0202229460798FFF797FFA81D9A
:10233000C5B2601CC4B21498ABEB0000401EA042B2
:10234000F0DC002414E0B9FBF6F0303000F0FF0AB6
:10235000B9FBF6F006FB10990A2096FBF0F6524600
:1023600029460798FFF77AFFA81DC5B2601CC4B2C2
:102370004445E8DB2E2229460798FFF76FFFA81D8A
:10238000C5B20A26002433E03046FEF763F9049014
:102390000699FDF767FF0590FEF783F9303000F0EE
:1023A000FF0A3046FEF756F904903046FEF752F920
:1023B00000900699FDF756FF0190FEF772F9C0B242
:1023C0000290FEF750F903900499FDF77DFF059008
:1023D0000699FDF744FF069006EB8600460052463C
:1023E00029460798FFF73AFFA81DC5B2601CC4B282
:1023F00014988442C8DB0BB0BDE8F08F2DE9F05F84
:1024000083460E461546994606EB46004006060EE4
:10241000002D06DA6D422D2231465846FFF71EFF89
:1024200004E0202231465846FFF718FFB01DC6B21F
:10243000284602F053F800F0FF08A8F101010A2035
:1024400002F0AEF90746444608E0202231465846DD
:10245000FFF704FFB01DC6B2601CC4B24C45F4DBEC
:10246000002414E095FBF7F0303000F0FF0A95FBF4
:10247000F7F007FB10550A2097FBF0F7524631465C
:102480005846FFF7EBFEB01DC6B2601CC4B244450F
:10249000E8DBBDE8F09F00002DE9F04780460C46E0
:1024A00015464FF000090026002704EB44004006C3
:1024B000040E20E0E85D203800F0FF097E2C04DDEA
:1024C000002408F1010000F0FF082146404600F01A
:1024D00047F8002609E009EB4901094A02EB4101EE
:1024E000885D00F07FF8701CC6B2062EF3DBA01DDD
:1024F000C4B2781CC7B2E85D0028DBD1BDE8F08724
:10250000C04A000808B50121402000F0A5FC4FF4A6
:102510008060ADF8000010208DF8030003208DF8D6
:10252000020069460D48FEF7F5FF4FF40060ADF874
:10253000000069460948FEF7EDFF4FF48050ADF802
:10254000000069460548FEF7E5FF4FF40050ADF87E
:10255000000069460148FEF7DDFF08BD0018014094
:1025600070B505460C4605F1B001C8B200F00AF896
:10257000102141EA141000F005F804F00F0000F0FB
:1025800001F870BD70B504464FF400511448FFF7D0
:1025900055F800251BE04FF480611148FFF74EF815
:1025A00004F0800028B14FF400610D48FFF748F8AF
:1025B00004E04FF400610A48FFF740F84FF48061EF
:1025C0000748FFF73DF86006040E681CC5B2082DE9
:1025D000E1DB4FF400510248FFF732F870BD000014
:1025E0000018014070B504464FF400511448FFF73D
:1025F00027F800251BE04FF480611148FFF71EF813
:1026000004F0800028B14FF400610D48FFF718F87E
:1026100004E04FF400610A48FFF710F84FF48061BE
:102620000748FFF70DF86006040E681CC5B2082DB8
:10263000E1DB4FF400510248FFF702F870BD0000E3
:10264000001801402DE9F84F05460C461646414852
:10265000414908614FF07E5048610846C069002832
:1026600076D03E4801682846FDF7F6FD81463C4895
:1026700001682046FDF7F0FD00903A4801683A48AD
:10268000FDF7F0FD8246394991F90200FDF7E2FFBE
:1026900083463749FDF7E6FD80465146FDF78AFD42
:1026A0000746FDF7E5FF40B23049887031480168C0
:1026B0002D48FDF7D7FD82462C4991F90300FDF71F
:1026C000C9FF83462A49FDF7CDFD80465146FDF7F7
:1026D00071FD0746FDF7CCFF40B22449C87091F95F
:1026E0000200FDF7B7FF80461B4841694046FDF7F1
:1026F000B9FD07463146FDF7B5FD174908601B498E
:1027000091F90300FDF7A6FF804613484169404652
:10271000FDF7A8FD07463146FDF7A4FD0E494860C8
:102720001248407888610D4805600D4804600F49E3
:1027300091F90200FDF78EFF0A4908600B4991F9F3
:102740000300FDF787FF0B49086000200249C861BC
:10275000BDE8F88F00002040E0030020A800002022
:10276000AC000020B00000209A99993ED0030020D0
:102770003333333FB400002000B585B00121082079
:1027800000F06AFB0121880400F056FB4FF48060E2
:10279000ADF8100018208DF8130003208DF81200FA
:1027A00004A91648FEF7B6FE4FF40060ADF810001D
:1027B00004208DF8130004A91048FEF7ABFE4FF477
:1027C000E13000900020ADF80400ADF80600ADF84F
:1027D0000800ADF80C000C20ADF80A006946084866
:1027E00001F0BAFA012240F22551054801F08FFAB2
:1027F0000121034801F03CFA05B000BD000C014086
:102800000048004012481349886100211148C16105
:102810001149016200200F49C86300210D4801647D
:10282000416400200D49886100210C48C1610162AA
:1028300000200A49C863002108480164416400205F
:1028400006490866002105484166054981667047CA
:10285000AE47A13F200400205C8FC2BF6804002067
:10286000B4581AC110B5FFF729FA00F003F8FEF7C3
:1028700001FE10BD08B5A148006800286CD1A0A2D7
:1028800000210846FFF708FE9E4805230F214268F5
:102890000020FFF7B3FD9CA200210120FFF7FCFD03
:1028A000022000909A4805230F2102680120FFF7BB
:1028B000FDFC98A200210220FFF7EEFD022000900F
:1028C000934805230F2142680220FFF7EFFC93A2F3
:1028D00000210320FFF7E0FD022000908C48052333
:1028E0000F2182680320FFF7E1FC8EA20021042063
:1028F000FFF7D2FD02200090854805230F21426A90
:102900000420FFF7D3FC89A200210520FFF7C4FDB6
:10291000022000907E4805230F21826A1846FFF7A7
:10292000C5FC84A200210620FFF7B6FD022000901E
:10293000774805230F21C26A0620FFF7B7FC7FA264
:1029400000210720FFF7A8FD6E4805230F2102682C
:102950000720FFF753FDD0E068480068012864D1E4
:1029600078A200210846FFF797FD664805230F214E
:1029700042680020FFF742FD73A200210120FFF70B
:102980008BFD734805230F2102680120FFF736FDF8
:1029900070A200210220FFF77FFD6D4805230F2163
:1029A00042680220FFF72AFD6CA200210320FFF7F6
:1029B00073FD674805230F2182680320FFF71EFD82
:1029C00068A200210420FFF767FD684805230F2156
:1029D00082680420FFF712FD65A200210520FFF7A1
:1029E0005BFD02200090644805230F218268184691
:1029F000FFF75CFC61A200210620FFF74DFD0220DD
:102A00000090604805230F2182680620FFF74EFCE6
:102A10004AA200210720FFF73FFD3A4805230F2176
:102A200002680720FFF7EAFC67E0344800680228E4
:102A300063D155A200210846FFF72EFD314805233A
:102A40000F2142680020FFF7D9FC50A2002101208D
:102A5000FFF722FD4F4805230F2102680120FFF7F1
:102A6000CDFC4DA200210220FFF716FD49480523A9
:102A70000F2142680220FFF7C1FC49A20021032078
:102A8000FFF70AFD434805230F2182680320FFF763
:102A9000B5FC45A200210420FFF7FEFC3D480523BC
:102AA0000F21C2680420FFF7A9FC41A200210520E4
:102AB000FFF7F2FC02200090324805230F21426A02
:102AC0001846FFF7F3FB3DA200210620FFF7E4FCC8
:102AD000022000902B4805230F21826A0620FFF771
:102AE000E5FB16A200210720FFF7D6FC05480523C9
:102AF0000F2102680720FFF781FC08BDC0000020FD
:102B000050313A00B80000205069746368410000F9
:102B1000200400205961774100000000526F6C6C66
:102B200041000000506974636847000059617747AD
:102B300000000000526F6C6C470000005379735422
:102B4000696D650050323A004D6F745F50000000AF
:102B5000740A00204D6F745F590000004D6F745F60
:102B6000520000004D6F745F46000000800A002094
:102B7000626D7064617461000C0300206E615F7AA5
:102B8000000000006804002050333A006578705F50
:102B900050000000600300206578705F590000005D
:102BA0006578705F520000006578705F4800000033
:102BB0006F70666C6F775F78000000006F70666CF6
:102BC0006F775F790000000010B500F09BFC00F00B
:102BD000C9FC10BD012806D0022807D0032809D05F
:102BE00004280FD10AE0084B19800BE0064B1B1D8F
:102BF000198007E0044B0833198003E0024B0C33C3
:102C0000198000BF00BF70473404004070470000C7
:102C100000B5B9B053481B9000201C901D902C901B
:102C2000514826906C221EA96846FDF79DFA4F4830
:102C30001BA90EC900F068FA6C221EA96846FDF7B0
:102C400093FA4B481BA90EC900F05EFA49481B9045
:102C500049481C9049481D9001202C9042482690DC
:102C60006C221EA96846FDF77FFA45481BA90EC9CC
:102C700000F04AFA6C221EA96846FDF775FA414831
:102C80001BA90EC900F040FA00201B901C901D905B
:102C90002C90354826906C221EA96846FDF764FAF0
:102CA00039481BA90EC900F02FFA38481B9032484A
:102CB0001C9000201D9001202C902B4826906C2207
:102CC0001EA96846FDF750FA31481BA90EC900F04D
:102CD0001BFA4FF07E501B9000201C901D902C90F2
:102CE000214826906C221EA96846FDF73DFA294826
:102CF0001BA90EC900F008FA27481B9027481C9012
:102D000027481D9001202C90174826906C221EA960
:102D10006846FDF729FA23481BA90EC900F0F4F90B
:102D20004FF07D501B9000201C901F481D900020EC
:102D30002C900D4826906C221EA96846FDF714FAC7
:102D40001A481BA90EC900F0DFF96C221EA96846BB
:102D5000FDF70AFA16481BA90EC900F0D5F939B0DB
:102D600000BD00000000E03F0000A042D4040020AD
:102D7000C40500209A99593F0000B040295C0F3DDE
:102D80003C0600202C0700204C0500209A99D93FD2
:102D9000B4060020A40700200000E04000004040EE
:102DA0006666E63F1C0800200AD7233C0C09002079
:102DB000840900202DE9F04104460D4616461848C6
:102DC0000268C1681748FEF741F8154908630846CC
:102DD000826841691448FEF739F81149886308464A
:102DE000426A016B1148FEF731F80746FDF740FCD7
:102DF00020600B48826A416B0D48FEF727F80746B2
:102E0000FDF736FC28600648C26A816B0948FEF768
:102E10001DF80746FDF72CFC3060BDE8F08100008E
:102E200020040020D4040020C40500203C0600201B
:102E3000B40600202C07002029B1064AD2690243BB
:102E4000044BDA6104E0034AD2698243014BDA6140
:102E5000704700000010024029B1064A92690243FF
:102E6000044B9A6104E0034A92698243014B9A61E0
:102E7000704700000010024030B5002100220024FD
:102E800000232D4D6D6805F00C0121B1042905D0FA
:102E9000082923D105E0294D056022E0274D056072
:102EA0001FE0254D6D6805F47012234D6D6805F423
:102EB0008034022505EB92421CB9214D5543056033
:102EC0000BE01D4D6D6805F400351DB11C4D5543DB
:102ED000056002E0194D5543056002E0174D05609D
:102EE00000BF00BF144D6D6805F0F0010909154DD4
:102EF0006B5C0568DD4045600F4D6D6805F4E06171
:102F0000090A104D6B5C4568DD4085600A4D6D68AF
:102F100005F46051C90A0B4D6B5C4568DD40C56026
:102F2000054D6D6805F44041890B074D6B5CC56824
:102F3000B5FBF3F5056130BD0010024000127A00C8
:102F400000093D00C8000020D800002010B504464C
:102F50000748006950B1204600F050F818B1044904
:102F60002046FDF710FE00200149086110BD000059
:102F70006003002000B585B001210420FFF76CFF3D
:102F800001214804FFF758FF0420ADF81000182075
:102F90008DF8130003208DF8120004A91548FEF7E0
:102FA000B9FA0820ADF8100004208DF8130004A928
:102FB0001048FEF7AFFA4FF4E13000900020ADF872
:102FC0000400ADF80600ADF80800ADF80C000C20C8
:102FD000ADF80A006946084800F0BEFE012240F242
:102FE0002551054800F093FE0121034800F040FE02
:102FF00005B000BD00080140004400402DE9F0414B
:1030000005464FF00008002600272846FDF7BEF8C9
:10301000142802D90020BDE8F08100240FE0285DCB
:10302000282802D108F1010808E0285D2C2801D1E8
:10303000761C03E0285D292800D17F1C641C2846EB
:10304000FDF7A4F8A042EAD8B8F1010F05D1032E8C
:1030500003D1012F01D10120DDE70020DBE70000D3
:1030600010B501210E48FEF7E9FA01F0D5FA012169
:103070000B48FEF7E5FA01F0CFFA02210848FEF707
:10308000D4FA28B101210648FEF7D8FA002010BD75
:1030900001210348FEF7D2FA01F0BEFA0120F6E75B
:1030A000000801407047000070B504460D462946EF
:1030B0002046FEF7BAFA80B929462046FEF7B5FA4F
:1030C00058B90748008806494988884203DB002030
:1030D0000349088070BD0220FCE70120FAE70000E8
:1030E0005800002010B504462020FFF74BFA204678
:1030F000FFF748FA10BD10B504468120FFF742FAE9
:103100002046FFF73FFA10BD0FB410B5044600216A
:103110000398FDF721FB01D20020039000210498C1
:10312000FDF71AFB01D20020049000210598FDF75D
:1031300013FB01D200200590039820600498606082
:103140000598A0600F982063109860630E98E06265
:1031500014986064606C28B104F160020849094861
:1031600000F0AAF80020A063E0632064E060206122
:103170006061A061E0612062606210BC5DF814FBD8
:103180000000A0410000484310B5044644F0400050
:10319000FFF7F8F910BD10B500F002F810BD0000FF
:1031A0000CB50020019000903348006840F4803056
:1031B0003149086000BF3048006800F400300090DA
:1031C0000198401C0190009818B90198B0F5A06FC3
:1031D000F1D12948006800F4003010B101200090BE
:1031E00001E0002000900098012843D123480068A6
:1031F00040F01000214908600846006820F00300F4
:1032000008600846006840F0020008601A484068FC
:10321000194948600846406848600846406840F4DC
:10322000806048600846406820F47C10486008468A
:10323000406840F4E81048600846006840F080703C
:10324000086000BF0C48006800F000700028F9D04A
:103250000948406820F00300074948600846406874
:1032600040F00200486000BF0348406800F00C00D6
:103270000828F9D10CBD00000010024000200240D7
:1032800010B504468D20FFF77DF944F01000FFF7DC
:1032900079F910BD10B50446DA20FFF773F944F050
:1032A0000200FFF76FF910BD10B5044644F0C000EE
:1032B000FFF768F910BD00002DE9FF5F07460D46D6
:1032C000144629463846FCF7FFFF03903848039917
:1032D000FCF7FAFF804601F0FDFA0646314630461B
:1032E000FCF7C0FF8346334801F03AF84FF08041C5
:1032F0000190FCF7B7FF82463146FCF7B3FF8146E9
:103300004FF07E51FCF756FF80465946FCF752FFBE
:10331000029000212846FDF71FFA01D8BDE8FF9F63
:1033200031463046FCF79EFF80460299FCF7CCFF01
:10333000E0604FF08040E168FCF794FF2061E168B5
:1033400061614FF07E50206031463046FCF78AFFC5
:1033500082464FF07E51FCF77FFF81464FF080415F
:10336000FCF780FF80460299FCF7AEFF60603146B3
:103370003046FCF777FF01900E4800F0F1FF4FF068
:1033800080410090FCF76EFF83463146FCF76AFFF0
:1033900082464FF07E51FCF762FF81460199FCF7AF
:1033A00009FF80460299FCF78FFFA06000BFB5E7D8
:1033B000DB0F4940DB0F493F10B50446D520FFF72E
:1033C000E1F82046FFF7DEF810BD10B50446D32023
:1033D000FFF7D8F82046FFF7D5F810BD10B5044622
:1033E00044F0AE00FFF7CEF810BD10B5044644F02F
:1033F000A400FFF7C7F810BD10B5044644F0A600BE
:10340000FFF7C0F810BD10B50446A820FFF7BAF8C2
:103410002046FFF7B7F810BD10B50446D920FFF7D6
:10342000B1F82046FFF7AEF810BD10B5044644F0E1
:10343000A000FFF7A7F810BD10B50446DB20FFF78A
:10344000A1F82046FFF79EF810BD10B500F0E4F893
:1034500000F01AFCFDF726FFFFF7DAFB10BD7047FE
:1034600010B51348006840F0010011490860084693
:103470004068104908400E494860084600680E49F7
:1034800008400B4908600846006820F48020086066
:103490000846406820F4FE0048604FF41F00886032
:1034A000FFF779FE4FF000600449086010BD00008E
:1034B000001002400000FFF8FFFFF6FE08ED00E0FC
:1034C00010B50121880700F0ADF8C0B10121084610
:1034D000FEF7DAFA0A480068401C09490860FEF75E
:1034E0008FFAFEF743FCFDF727FDFEF741FD0021B3
:1034F0000120FEF7C9FA0121880700F07EF810BD0F
:10350000B800002008B501210C20FFF7A5FC01211F
:103510000846FFF7A1FC4020ADF8000018208DF808
:10352000030003208DF8020069460C48FDF7F2FF06
:103530008020ADF8000069460848FDF7EBFF012048
:10354000ADF8000069460648FDF7E4FF0220ADF83B
:10355000000069460248FDF7DDFF08BD0008014094
:10356000000C014000B587B001210220FFF764FC88
:1035700044F61F60ADF814004820ADF8100000209C
:10358000ADF81600ADF8120004A9194800F0C0F912
:103590006020ADF800000120ADF802000020ADF879
:1035A00008006946124800F057F80821104800F05A
:1035B0009FF869460E4800F0A5F808210C4800F075
:1035C000F3F869460A4800F0FDF80821084800F0C1
:1035D00049F96946064800F04FF90821044800F00F
:1035E00089F90121024800F00BF807B000BD000086
:1035F00000040040CA4302827047CA4302827047F7
:1036000021B1028842F00102028004E002884FF6F4
:10361000FE731A400280704710B5FDF766FFFDF794
:103620003EFF10BD30B50246002000230024158A5D
:1036300005EA0103958905EA010413B10CB10120E3
:1036400000E0002030BD1AB183890B43838102E082
:1036500083898B438381704770B500240022002347
:10366000058C4FF6FE7635400584028C8388048BEA
:103670004FF68F752C40B51E2C400D882C43751EBF
:103680002A400D892A434D882A43144DA8420BD065
:10369000134DA84208D0134DA84205D0124DA842A0
:1036A00002D0124DA84213D14FF6F7752A404D892A
:1036B0002A434FF6FB752A408D882A434FF6FF6553
:1036C0002B404FF6FF552B408D892B43CD892B4343
:1036D00083800483CD888586028470BD002C0140E0
:1036E00000340140004001400044014000480140D6
:1036F0000A460021018B4FF6F773194011430183ED
:103700007047000070B5002400220023058C4FF69E
:10371000EF7635400584028C8388048B48F6FF756C
:103720002C404FF6FF452C400D884FF6FF7606EAF9
:1037300005252C434FF6DF752A400D8906EA05154D
:103740002A434D8806EA05152A43154DA84202D0A2
:10375000144DA8421DD14FF67F752A404D894FF672
:10376000FF7606EA05152A434FF6BF752A408D8875
:1037700006EA05152A434FF6FF352B404FF2FF7539
:103780002B408D8906EA85052B43CD8906EA850500
:103790002B4383800483CD880587028470BD00009D
:1037A000002C0140003401400A460021018B4FF2F9
:1037B000FF7319404FF6FF7303EA02231943018395
:1037C0007047000070B5002400220023058C4FF6DE
:1037D000FF6635400584028C8388848B4FF68F7595
:1037E0002C404FF6FC752C400D882C434FF6FF55AE
:1037F0002A400D894FF6FF7606EA05252A434D88B3
:1038000006EA05252A43154DA84202D0144DA842C8
:103810001DD14FF2FF752A404D894FF6FF7606EA1B
:1038200005252A434FF6FF352A408D8806EA0525EF
:103830002A434EF6FF752B404DF6FF752B408D89C0
:1038400006EA05152B43CD8906EA05152B4383802F
:103850008483CD888587028470BD0000002C0140E0
:10386000003401400A460021818B4FF6F77319405E
:10387000114381837047000070B5002200230024AB
:10388000058C4EF6FF7635400584038C8488828B48
:1038900048F6FF752A404FF6FF452A400D884FF63F
:1038A000FF7606EA05252A434DF6FF752B400D8964
:1038B00006EA05352B434D8806EA05352B430B4DAB
:1038C000A84202D00A4DA84208D14BF6FF752C4001
:1038D0008D894FF6FF7606EA85152C438480828316
:1038E000CD88A0F84050038470BD0000002C01403A
:1038F000003401400A460021818B4FF2FF731940CA
:103900004FF6FF7303EA02231943818370470000D7
:10391000002202881D4B98420ED01D4B98420BD0BE
:10392000B0F1804F08D01B4B984205D01A4B9842FB
:1039300002D01A4B984204D14FF68F731A404B882D
:103940001A43174B984207D0164B984204D04FF6B3
:10395000FF431A40CB881A4302808B8883850B88EB
:1039600003850A4B98420BD0094B984208D00E4B66
:10397000984205D00D4B984202D00D4B984201D190
:103980000B7A03860123838270470000002C0140DC
:10399000003401400004004000080040000C0040DA
:1039A000001000400014004000400140004401406D
:1039B0000048014010B540F22551264800F07DF93D
:1039C000002845D001210420FEF75EF8214800F0D0
:1039D0002FFAC1B2204802780078401C1E4B1870A4
:1039E0001E48815400785A2802D0002019460870D9
:1039F00019480078022806D1184840785A2802D081
:103A00000020154908701448007803281CDD13486D
:103A1000C078401D10490978884200D010BD0F4879
:103A2000807815280CD10E48806840B90D480B49A4
:103A30000A6802604968416001200949886000BF46
:103A400000BF00200449087000210420FEF71CF884
:103A500000BFE3E7004C004008000020FE0000200B
:103A6000C40300208800002008B54FF4C060FEF7B2
:103A70001DFB25208DF8000000208DF8010001209D
:103A80008DF802008DF803006846FEF7D7FA4FF470
:103A9000C060FEF70BFB26208DF8000000208DF89B
:103AA000010002208DF8020001208DF80300684615
:103AB000FEF7C4FA4FF4C060FEF7F8FA34208DF830
:103AC000000000208DF8010003208DF80200012085
:103AD0008DF803006846FEF7B1FA4FF4C060FEF7B8
:103AE000E5FA27208DF8000000208DF80100042061
:103AF0008DF8020001208DF803006846FEF79EFA5B
:103B000008BD000010B540F22551064800F0D5F878
:103B100038B1044800F08CF9C4B22146014800F0E5
:103B20008CF910BD0038014010B540F225511948FC
:103B300000F0C3F860B301210220FDF7A5FF15488E
:103B400000F076F91449154A12688854084613495A
:103B50000968405C0A2812D100200F490F4A1268F8
:103B600088540E4908600E48006968B91E220A4947
:103B70000C48FCF7F9FA01200949086104E00748FC
:103B80000068401C0549086000210220FDF77CFF09
:103B900010BD000000440040E000002004000020B0
:103BA000600300207403002038B52CA0006800904A
:103BB000002540F225512A4800F07FF800284CD01B
:103BC00001210320FDF760FF254800F031F9C4B260
:103BD0002448006804280FDA224909681DF801000A
:103BE000A04205D11F480068401C1E49086030E013
:103BF00000201C4908602CE01A48006811280CDCE1
:103C000018480068001F18490C54281945B2154877
:103C10000068401C134908601BE012480068122825
:103C20000CD10DB90D2C03D000200E49086010E016
:103C30000C480068401C0B4908600AE00A2C05D1BA
:103C40000A48C06910B901200849C8610020054927
:103C5000086000210320FDF717FF38BD234A4223E7
:103C6000004800400C000020D0030020E0030020AA
:103C700021B1828942F40052828104E082894DF6AA
:103C8000FF731A408281704710B5FFF7EDFEFDF714
:103C900039FBFFF76FF9FDF7A7FBFEF76DFD10BDD0
:103CA00002460020B1F5007F00D100BF13880B4011
:103CB0000BB1012000E00020704770B502460024DF
:103CC00000230025002040F66A16B14200D100BF53
:103CD000C1F3421501F01F03012606FA03F3012D7B
:103CE00002D19689334006E0022D02D1168A334074
:103CF00001E0968A33400C12012606FA04F4168875
:103D0000344013B10CB1012000E0002070BDF0B5CB
:103D10000346002400260025002040F66A17B94219
:103D200000D100BF1846C1F3421401F01F0601275D
:103D300007FA06F5012C01D10C3004E0022C01D168
:103D4000103000E014301AB107682F43076002E01A
:103D50000768AF430760F0BD2DE9F04786B0054620
:103D60000E460024A24600BFA1460027B08900B13C
:103D700000BF2F462C8A4CF6FF700440F0880443A5
:103D80002C82AC894EF6F3100440B0883189084388
:103D9000718908430443AC81AC8A4FF6FF4004406C
:103DA000B0890443AC8201A8FFF766F81F48874238
:103DB00002D1DDF810A001E0DDF80CA0A88900F424
:103DC000004040B10AEBCA0000EB0A10316849001C
:103DD000B0FBF1F807E00AEBCA0000EB0A1031680B
:103DE0008900B0FBF1F86420B8FBF0F00401200971
:103DF000642101FB1089A88900F4004040B1322001
:103E000000EBC900B0FBF1F000F00700044308E04C
:103E1000322000EB09106421B0FBF1F000F00F003C
:103E200004432C8106B0BDE8F08700000038014053
:103E300001468888C0F308007047C1F308028280F9
:103E40007047000010B50948406A094908600748F2
:103E5000806A48600548C06A886004488068C86015
:103E60001022044800F00EFE10BD0000680400207F
:103E7000BC0A00200044004000BFFEE7490050EAB1
:103E8000C12018BF04204A0D18BF40F0010040F2C5
:103E9000FF72B2EB515F08BF40F00200012808BF7B
:103EA000052070474100080218BF04200A0E18BF01
:103EB00040F001004FF07F4232EA010108BF40F0BC
:103EC0000200012808BF0520704700000048704725
:103ED000DC0000202DE9F0414F1E00EBC701044635
:103EE000D1E9000115461E4637F006020DD02A46DC
:103EF0003346FCF7CEFA7F1E04EBC703D3E9002359
:103F0000FCF720FA37F00602F1D1022F25D0042F5A
:103F100013D0062F18BFBDE8F0812A463346FCF7C0
:103F2000B8FAD4E90A23FCF70DFA2A463346FCF71F
:103F3000B0FAD4E90823FCF705FA2A463346FCF721
:103F4000A8FAD4E90623FCF7FDF92A463346FCF724
:103F5000A0FAD4E90423FCF7F5F92A463346FCF726
:103F600098FAD4E90223FCF7EDF92A463346FCF728
:103F700090FAD4E90023BDE8F041FCF7E3B901224F
:103F8000FCF719BD024A00201107FCF714BD000020
:103F900001FDFFFF0121FCF7DCBD00210846FCF715
:103FA00093B96FF05E010807FCF7D3BD2DE9F04D22
:103FB0000D4614464FF07F41B1EB440F9EBF4FF0CA
:103FC000FF312960BDE8F08D4FF0004040EA042148
:103FD000C4F3C750783810F01F024A4B4FEA601CF8
:103FE000C2F120067B44C4F3C750A0F178004FEA29
:103FF000601003EB800053F82C3008BFD0E901C6F5
:1040000012D0D0F804C093402CFA06F73B438768DF
:104010000CFA02FC27FA06F8C06807FA02F2F04030
:104020004CEA080C42EA0006A3FB0132ACFB01C0DB
:10403000A6FB016101EB0C068E4234BF4FF0010C70
:104040004FF0000CC1186144BCF1000F02D0814256
:1040500002D903E0814201D2012000E00020104497
:1040600000F120024FEA92188006CA0C40EA423062
:104070004F03C5F80080FCF7EDFA82463846FCF79E
:10408000F2FA6FF01201FCF764FD07463046FCF7C8
:10409000EAFA6FF02501FCF75CFD8346394650468D
:1040A000FCF788F85946FCF785F800F500666FF3D1
:1040B0000B0651463046FCF7CFF83946FCF7CCF8F2
:1040C0005946FCF7CCF81049FCF7CCF807460F49E5
:1040D0003046FCF7C7F83946FCF76CF807460C4940
:1040E0003046FCF7BFF83946FCF764F814F0004F8F
:1040F00008BFBDE8F08DC8F1805180F00040296014
:10410000BDE8F08DD80D0000DB0FC92F22AAFD29D4
:104110000000C92F02E008C8121F08C1002AFAD106
:1041200070477047002001E001C1121F002AFBD137
:10413000704700000149086070470000DC00002063
:104140002DE9F84F04460D4621F0004000917349D7
:10415000814211DC7249884201DC06D12CB1204633
:104160002946BDE8F84FFFF70ABF6E48002DCCBFC7
:104170006D496E49BDE8F88F6D49814211DD6D4989
:104180008142D8BF4FF0FF366DDD20462946FFF74C
:1041900075FE042808BFFFF7F5FE20462946BDE856
:1041A000F88F6549654F25F00045814233DD64494C
:1041B000814219DD002632464FF0804320462946D1
:1041C000FCF7C0F880468A46012220462946FCF7C3
:1041D000F2FB00223B46FCF756F942465346FCF7F9
:1041E000CAF904460D463EE001260022BA463B4687
:1041F00020462946FCF7A6F880460F460022534683
:1042000020462946FCF73FF942463B46FCF7B3F906
:1042100004460D4627E04B4981421BDDDFF828A10B
:1042200002260022534620462946FCF732F9002296
:104230003B46FCF787F880460F460022534620464F
:104240002946FCF720F942463B46FCF794F9044620
:104250000D4608E0032622462B4600203B49FCF78A
:104260008AF904460D4622462B4610461946FCF7AD
:1042700010F98B46824602460B46FCF70AF90746C0
:104280000246334888460B4606217844FFF722FE53
:1042900052465B46FCF7FDF882462E488B463A466E
:1042A000434605217844FFF715FE3A464346FCF79E
:1042B000F0F802460B46002E504659460CDAFCF741
:1042C00041F822462B46FCF7E4F801B022462B4683
:1042D000BDE8F04FFCF7DAB8FCF734F822462B467D
:1042E000FCF7D7F81C4A7A4402EBC603D3E9002353
:1042F000FCF7C9F822462B46FCF7C5F8174A7A4462
:1043000002EBC603D3E90023FCF7C0F8009A002AA9
:10431000B8BF81F00041BDE8F88F000000001044F4
:104320000000F07F182D4454FB21F93FFB21F9BF19
:104330000000DC3F0000203E0000F33F0000F03FA3
:104340000000E63F008003400000F83F0000F0BF9F
:10435000020B0000C00A00005E0A0000260A0000EE
:104360002DE9F843044602464F486946B0EB420F38
:1043700009D94FF0E640B0EB420F94BF00204FF058
:10438000FF30009030E0494B22F00040834271D969
:1043900047492046FBF766FFFCF792FA8046FCF798
:1043A00067F900F00300009042494046FBF75AFFCE
:1043B000054641494046FBF755FF06463F49404602
:1043C000FBF750FF07463E494046FBF74BFF2146AF
:1043D000FBF745FF3946FBF73FFF3146FBF73CFF54
:1043E0002946FBF739FF04462546009C002C45DB97
:1043F000294614F0010F08461CD0FBF733FF064690
:104400003049FBF72FFF3049FBF729FF3146FBF717
:1044100029FF2E49FBF7CEFE3146FBF723FF294645
:10442000FBF720FF2946FBF7C5FE14F0020F1CD056
:10443000BDE8F883FBF716FF05462549FBF712FF99
:104440002449FBF7B7FE2946FBF70CFF2249FBF78F
:10445000B1FE2946FBF706FF4FF07E51FBF7AAFE9F
:1044600014F0020F08BFBDE8F88380F00040BDE8FB
:10447000F883FFE71046FFF799FDB4E76800B0F155
:104480007F4F3CBF4FF07E50BDE8F88307D14FF01F
:104490000100FFF74FFEBDE8F843FFF77EBD284659
:1044A000BDE8F843FFF776BDB61F927E490E494638
:1044B00083F9223F1A61342C0020A23300A0FD3979
:1044C0000000C93F336D4C39DA82083CA0AA2ABEED
:1044D000B93AB2BACA9F2A3DDDFFFFBE01460022AB
:1044E00009B901207047002900DA494203E00A2097
:1044F00091FBF0F1521C0029F9DC1046F2E70000B4
:104500002DE9FF5F04460D463A4E4FF07C5929468F
:1045100039480068FBF74EFE374908602846FCF72B
:10452000D4F80746354A364BFBF7B3FFCDE9020115
:1045300034480068FCF7C9F8CDE90001DDE9022341
:10454000FBF700FF8246FCF7EBF82F4908602F4885
:1045500001682046FBF780FE0390FCF7B6F807469B
:10456000264A274BFCF707F88246FCF7D9F828497A
:104570000860002126480068FCF7EEF803D12548C2
:1045800000682349086049464FF07E50FBF764FEFF
:104590008246204801685046FBF764FE07461C48E7
:1045A00001684846FBF75EFE80463946FBF702FE8F
:1045B0001749086031464FF07E50FBF74DFE8246AA
:1045C000134801685046FBF74DFE07460E48016848
:1045D0003046FBF747FE80463946FBF7EBFD0949BD
:1045E00008600A4804600A4800680A490860BDE893
:1045F000FF9F0000A4707D3F9C0000207B14AE470D
:10460000E17A743F9000002098000020A000002074
:1046100094000020A4000020002000BF0100A0F1B1
:10462000010290B2FAD170472DE9F04104460D46DF
:104630001646FDF75FF9002141EA4401C8B200F0D7
:10464000FBF8284600F0F8F8012E01D1FDF76AF9D1
:10465000FDF750F9012101EB4401C8B200F0ECF87C
:10466000002000F0B1F80746FDF75CF93846BDE8D8
:10467000F0812DE9F04105460E4614461F46DDF84F
:104680001880FDF737F9002141EA4501C8B200F072
:10469000D3F8304600F0D0F8B8F1010F01D1FDF7A2
:1046A00041F9FDF727F9012101EB4501C8B200F0FE
:1046B000C3F804E0012000F087F82060241D781E74
:1046C000C0B20700F6D100F07FF82060FDF72AF9AC
:1046D000BDE8F08170B504460D461646FDF70AF9AF
:1046E000002141EA4401C8B200F0A6F8284600F0D3
:1046F000A3F8304600F0A0F8FDF714F970BD0000F3
:104700002DE9F04704464FF07C512046FBF7AAFD07
:10471000814625462E460C48A0EB660635462946BE
:104720004846FBF79FFD82462946FBF79BFD8046E6
:104730004FF07F51FBF793FD07462946FBF792FDAB
:1047400005462846BDE8F087DF59375FFDF77EF85C
:10475000FEF77BFE21E01148007805281CD2DFE837
:1047600000F003070B0F150001200C49087013E03F
:1047700002200A4908700FE00320084908700BE086
:10478000FEF770F804200549087005E0FFF75AFBB2
:1047900000200249087000BF00BFDCE700000020D5
:1047A00010B50246012000E050430B00A1F10101C9
:1047B000FAD110BD03688B4201DC016003E003689D
:1047C000934200DB0260704770B506460024012169
:1047D0001848FCF733FFFFF71FFF02211548FCF7CD
:1047E0002FFF002518E0FFF717FF01211148FCF704
:1047F00025FFFFF711FF01210E48FCF721FFFFF70E
:104800000BFF6006040E02210A48FCF70EFF08B1F8
:10481000601CC4B2681CC5B2082DE4DB0121054848
:10482000FCF70CFFFFF7F8FE3046FDF723F82046B3
:1048300070BD00000008014070B50446082519E06D
:1048400004F0800020B102210E48FCF7F9FE03E0DD
:1048500002210C48FCF7F2FE6006040EFFF7DCFEB6
:1048600001210848FCF7ECFEFFF7D6FE01210548C0
:10487000FCF7E4FE2800A5F10101CDB2E0D1FEF77E
:10488000EFFB70BD000801402DE9F04106460F46E0
:10489000FCF7A8F804000D4618BF0120284320F0BB
:1048A0000040C0F17F6000F1E040C00F0ED0301C2E
:1048B00018BF0120384320F00040C0F17F6000F1B4
:1048C000E040C00F04BF0120FFF734FC204629461A
:1048D000BDE8F0812DE9F843044602464C4869469C
:1048E000B0EB420F09D94FF0E640B0EB420F94BF56
:1048F00000204FF0FF30009030E0464B22F00040A7
:10490000834265D944492046FBF7ACFCFBF7D8FF4E
:104910008046FBF7ADFE00F0030000903F494046A3
:10492000FBF7A0FC05463E494046FBF79BFC0646CC
:104930003C494046FBF796FC07463B494046FBF79F
:1049400091FC2146FBF78BFC3946FBF785FC314691
:10495000FBF782FC2946FBF77FFC0446009D002DF7
:104960003ADB21460846FBF77DFC06462F49FBF75C
:1049700079FC2F49FBF71EFC3146FBF773FC2D49F0
:10498000FBF718FC3146FBF76DFC2B49FBF712FCDB
:104990003146FBF767FC2949FBF70CFC3146FBF776
:1049A00061FC2749FBF706FC3146FBF75BFC21461F
:1049B000FBF758FC2146FBF7FDFB15F0010F08BF84
:1049C000BDE8F8830146BDE8F8431E48FBF77CBC10
:1049D0001046FFF7EBFAC0E76000B0F17F4F09D255
:1049E0002046FFF75FFA042808BFFFF7DAFA2046EF
:1049F000BDE8F88306D10120FFF79CFBBDE8F84332
:104A0000FFF7CBBA2046BDE8F843FFF7C3BA000072
:104A1000B61F927E490E494683F9223F1A61342C13
:104A20000020A23300A0FD390000C93FBBE9223CB1
:104A30000C6D063B8A76CE3CACB5593D35A1083E9F
:104A400029AAAA3E000080BF70B506460C4615464E
:104A500004E02178304600F006F8641C2800A5F137
:104A60000105F6D170BD70B504460D4600BF80212A
:104A70002046FFF715F90028F9D029462046FFF710
:104A8000DCF970BD7CB504460D4616460AA00068E8
:104A900001900AA000680090022201A92046FFF7B9
:104AA000D3FF324629462046FFF7CEFF0222694651
:104AB0002046FFF7C9FF7CBD03FC0000FC0300009B
:104AC0000000000000000000002F000000000700B0
:104AD000070000147F147F1400242A7F2A1200622A
:104AE00064081323003649552250000005030000D6
:104AF00000001C224100000041221C000014083E5E
:104B000008140008083E0808000000A06000000823
:104B10000808080800006060000000201008040277
:104B2000003E5149453E0000427F40000042615135
:104B30004946002141454B31001814127F100027CF
:104B400045454539003C4A49493000017109050392
:104B500000364949493600064949291E00003636C3
:104B60000000000056360000000814224100001426
:104B70001414141400004122140800020151090603
:104B800000324959513E007C1211127C007F494984
:104B90004936003E41414122007F4141221C007FB5
:104BA00049494941007F09090901003E4149497AC3
:104BB000007F0808087F0000417F4100002040413D
:104BC0003F01007F08142241007F40404040007FA9
:104BD000020C027F007F0408107F003E4141413EED
:104BE000007F09090906003E4151215E007F091935
:104BF00029460046494949310001017F0101003F32
:104C00004040403F001F2040201F003F4038403FB1
:104C10000063140814630007087008070061514915
:104C2000454300007F4141000002040810200000BD
:104C300041417F0000040201020400404040404026
:104C4000000001020400002054545478007F4844BE
:104C5000443800384444442000384444487F0038F5
:104C60005454541800087E0901020018A4A4A47C1E
:104C7000007F080404780000447D400000408084E8
:104C80007D00007F102844000000417F4000007C30
:104C900004180478007C080404780038444444383C
:104CA00000FC242424180018242418FC007C080488
:104CB000040800485454542000043F444020003C61
:104CC0004040207C001C2040201C003C4030403CE8
:104CD000004428102844001CA0A0A07C0044645478
:104CE0004C44141414141414E8B59BE58D9A000C6C
:104CF000045454FC545654FC5454040C0009495DAB
:104D0000472525152525475D0909002020FE20207F
:104D1000F45454FE5456F4040000007F00080B19AC
:104D2000290B497D0B0800004FBB610567ACDD3FD7
:104D3000182D4454FB21E93F9BF681D20B73EF3FC2
:104D4000182D4454FB21F93FE2652F227F2B7A3C3A
:104D5000075C143326A6813CBDCBF07A8807703CF3
:104D6000075C143326A6913CC4EB98999999C9BF66
:104D7000711623FEC671BCBF6D9A74AFF2B0B3BF9B
:104D80009AFDDE522DDEADBF2F6C6A2C44B4A2BF5B
:104D90000D5555555555D53FFF8300922449C23FC7
:104DA0006E204CC5CD45B73F513DD0A0660DB13FFB
:104DB000EB0D76244B7BA93F11DA22E33AAD903F0D
:104DC000000000006E83F9A22915444ED15727FC3C
:104DD000C0DD34F5999562DB4190433CAB6351FEF5
:104DE00000404040404040404040414141414140FE
:104DF00040404040404040404040404040404040B3
:104E00004005020202020202020202020202020241
:104E10000220202020202020202020020202020246
:104E2000020290909090909010101010101010109E
:104E300010101010101010101010101002020202AA
:104E400002028888888888880808080808080808EE
:104E500008080808080808080808080802020202EA
:104E600040000000E14D0008884E000800000020CE
:104E7000E000000014410008684F0008E000002036
:104E8000F00D0000244100080000000000000000B8
:104E900000000000000000000000803FB285203FBD
:104EA000F4BF94BE17A0B53EB285203F17A0B53E13
:104EB0000000803F7290083F20E464BEF8C6C63E02
:104EC0007290083FF8C6C63E0000803F53059A3EE8
:104ED0000F496C3F8724763F53059A3E8724763FDF
:104EE00000000000000000001900000000000000A9
:104EF00000000000000000000000000000000000B2
:104F000000000000000000000000000000000000A1
:104F10000000000000000000000000000000000091
:104F20000000000000000000000000000000000081
:104F30000000000000000000000000000000000071
:104F40000000000000000000000000000000000061
:104F5000000000000102030401020304060708091F
:084F6000020406080000000035
:0400000508000131BD
:00000001FF
